:100000000C9442190C9473190C9473190C94731971
:100010000C9473190C9473190C9473190C94731930
:100020000C9473190C9473190C9473190C94731920
:100030000C9473190C9473190C9473190C94731910
:100040000C9473190C9470A10C9473190C9473197B
:100050000C9473190C9473190C9433B70C945BFFC4
:100060000C9473190C9411300C9473190C9473192B
:100070000C9473190C9473190C9473190C947319D0
:100080000C9473190C9473190C9473190C947319C0
:100090000C9473190C9473190C9473190C944DF8F7
:1000A0000C9473190C9473190C9473190C947319A0
:1000B0000C9473190C9473190C9473190C94731990
:1000C0000C9473190C9473190C9473190C94731980
:1000D0000C9473190C9473190C9473190C94731970
:1000E0000C947319AFB7BFB7DEB7EEB709B819B83C
:1000F00034B839B83CB841B844B849B853B8F70037
:10010000F9000B01E500EF00E700ED00FF000D0135
:10011000FD00CB00D700DF000701E700E900030185
:10012000CF00F500D300D100F100E300E1000501AC
:100130000101D900CD00F300FB00D500EB00E10088
:10014000C900DD00DB00084AD73B3BCE016E84BC12
:10015000BFFDC12F3D6C74319ABD56833DDA3D0021
:10016000C77F11BED9E4BB4C3E916BAAAABE00006A
:1001700000803F05A84CCDB2D44EB93836A9020C48
:1001800050B9918688083CA6AAAA2ABE0000008021
:100190003F000D9463010D94CA000D944B010D9422
:1001A0000B010D9428010D9439010D9459010D9402
:1001B000D4000D9447010D946B010D9467010D94CB
:1001C000E3000D9470010D9432010D9492000D9492
:1001D00015010D94F7000D945D010D94A6000D948A
:1001E0009C000D942C010D944F010D9436010D943B
:1001F0007E000D9483000D9455010D94C0000D9464
:10020000AE000D9441010D9401010D943D010D943A
:10021000ED000D9415020D9488000D94B6004D3834
:100220003420582059205A20450043616E6E6F7467
:1002300020656E746572207375626469723A20007D
:100240004D3234004D3233202573006175746F25B3
:10025000692E67006572726F722077726974696EB9
:100260006720746F2066696C65004E6F742053447C
:10027000207072696E74696E6700534420707269F1
:100280006E74696E672062797465200044656C65E0
:1002900074696F6E206661696C65642C2046696CB8
:1002A000653A200046696C652064656C6574656418
:1002B0003A006F70656E206661696C65642C20463B
:1002C000696C653A200057726974696E6720746FB3
:1002D0002066696C653A20002E0A006F70656E20FA
:1002E0006661696C65642C2046696C653A20002E55
:1002F0000A006F70656E206661696C65642C20462B
:10030000696C653A200046696C652073656C6563AD
:10031000746564002053697A653A200046696C650B
:10032000206F70656E65643A20006F70656E2066A0
:1003300061696C65642C2046696C653A20004E6FDB
:10034000772066726573682066696C653A20004E96
:100350006F7720646F696E672066696C653A20006C
:100360002220706F73002220706172656E743A22D1
:1003700000535542524F5554494E452043414C4C31
:10038000207461726765743A22004B494C4C4544B5
:100390002E2000747279696E6720746F2063616C1F
:1003A0006C207375622D67636F64652066696C6588
:1003B00073207769746820746F6F206D616E792087
:1003C0006C6576656C732E204D4158206C657665A2
:1003D0006C2069733A0053442063617264206F6B30
:1003E000006F70656E526F6F74206661696C656432
:1003F00000766F6C756D652E696E69742066616933
:100400006C656400534420696E6974206661696C90
:100410000020204D383531205A005A2D50726F621D
:1004200065204F666673657420286D6D293A00203B
:10043000204D3230302044300020204D32303020EA
:1004400044002044697361626C65640046696C61B4
:100450006D656E742073657474696E67733A0020FD
:10046000440020490020204D333034205000204CDF
:100470000020430020440020490020204D3330312B
:100480002050005049442073657474696E67733A54
:100490000020460020420020204D313435204D31CF
:1004A00020480020460020420020204D31343520D5
:1004B0004D302048004D6174657269616C2068653B
:1004C0006174757020706172616D65746572733AE4
:1004D00000205A0020590020204D3230362058008C
:1004E000486F6D65206F666673657420286D6D2991
:1004F0003A00204500205A00205800204200205495
:100500000020204D323035205300416476616E6307
:100510006564207661726961626C65733A20533D4F
:100520004D696E20666565647261746520286D6D25
:100530002F73292C20543D4D696E207472617665AD
:100540006C20666565647261746520286D6D2F731B
:10055000292C20423D6D696E696D756D207365674C
:100560006D656E742074696D6520286D73292C206B
:10057000583D6D6178696D756D205859206A6572B6
:100580006B20286D6D2F73292C20205A3D6D6178CA
:10059000696D756D205A206A65726B20286D6D2F0C
:1005A00073292C2020453D6D6178696D756D20455E
:1005B000206A65726B20286D6D2F7329002054000E
:1005C00020520020204D32303420500041636365BA
:1005D0006C65726174696F6E733A20503D70726918
:1005E0006E74696E672C20523D726574726163741B
:1005F00020616E6420543D74726176656C00204504
:1006000000205A0020590020204D3230312058005F
:100610004D6178696D756D20416363656C657261CC
:1006200074696F6E20286D6D2F7332293A00204552
:1006300000205A0020590020204D3230332058002D
:100640004D6178696D756D2066656564726174656C
:100650007320286D6D2F73293A00204500205A0021
:1006600020590020204D3932205800537465707392
:100670002070657220756E69743A00486172646317
:100680006F6465642044656661756C74205365749D
:1006900074696E6773204C6F6164656400206279D1
:1006A00074657329002073746F72656420736574B8
:1006B00074696E677320726574726965766564200B
:1006C0002800206279746573290053657474696E1B
:1006D00067732053746F7265642028004572726FCF
:1006E000722077726974696E6720746F2045455077
:1006F000524F4D210020496E76616C696420657807
:1007000074727564657220005072696E746572202F
:1007100068616C7465642E206B696C6C2829206399
:10072000616C6C656421004B494C4C45442E2000A3
:100730004B494C4C45442E200020746F6F206C6F49
:100740006E6720657874727573696F6E207072655C
:1007500076656E7465640020636F6C6420657874E0
:10076000727573696F6E2070726576656E746564FC
:10077000006F6B00526573656E643A20003A20008A
:100780007A5F6D61783A20007A5F6D696E3A200079
:100790006F6B005A204F6666736574004D333030BE
:1007A000205336353920503230300A4D3330302026
:1007B000533639382050323030004F6666736574D6
:1007C000206170706C6965642E004D3330302053A9
:1007D00034302050323030004572723A20546F6FFE
:1007E000206661722100546F6F206661722066720C
:1007F0006F6D207265666572656E636520706F69E6
:100800006E740053657474696E6720547261766506
:100810006C20416363656C65726174696F6E3A2028
:100820000053657474696E672052657472616374F5
:1008300020416363656C65726174696F6E3A200074
:1008400053657474696E67205072696E74204163D9
:1008500063656C65726174696F6E3A2000536574EC
:1008600074696E67205072696E7420616E642054E2
:10087000726176656C20416363656C657261746951
:100880006F6E3A20004D31343520533C696E6465FB
:10089000783E206F7574206F662072616E676520E8
:1008A00028302D3129007A5F6D696E3A2000795F1A
:1008B0006D696E3A2000785F6D696E3A2000205AAB
:1008C0003A0020593A0020436F756E7420583A2040
:1008D0000020453A00205A3A0020593A00583A0080
:1008E0004649524D574152455F4E414D453A4D6143
:1008F000726C696E20312E312E302D524333204DD3
:100900006F64696669656420666F72204269674238
:100910006F782050726F20534F555243455F434FBD
:1009200044455F55524C3A687474703A2F2F77697A
:100930006B692E6533642D6F6E6C696E652E636F07
:100940006D2F77696B692F426967426F782F20504E
:10095000524F544F434F4C5F56455253494F4E3AB6
:10096000312E30204D414348494E455F5459504542
:100970003A426967426F782050726F20455854524E
:10098000554445525F434F554E543A3120555549D1
:10099000443A30303030303030302D303030302D3F
:1009A000303030302D303030302D3030303030304D
:1009B0003030303030300A00426967426F78205062
:1009C000726F204F66662E00426967426F78205032
:1009D000726F2072656164792E0042656420646FD5
:1009E0006E652E0020423A0020453A00543A0042FB
:1009F00065642048656174696E672E00486561749E
:100A0000696E6720646F6E652E003F0020573A00C4
:100A100020453A00543A0048656174696E672E2E8D
:100A20002E002042403A0020403A00202F0020545F
:100A300000202F0020423A00202F0020543A006F5F
:100A40006B004B494C4C45442E20004445425547D1
:100A50002044525952554E20454E41424C45440087
:100A60004445425547204543484F20454E41424C5E
:100A70004544005374616E64617264204465766914
:100A80006174696F6E3A20004D65616E3A200020F6
:100A900020207369676D613A2000206D65616E3AB0
:100AA00020002020207A3A2000206F662000793A2A
:100AB0002000783A2000506F736974696F6E696E18
:100AC00067207468652070726F62652E2E2E0A0092
:100AD0003F4E756D626572206F66206C656773208E
:100AE000696E206D6F76656D656E74206E6F742013
:100AF000706C61757369626C652028302D31352901
:100B00002E0A00590058003F53616D706C652073C8
:100B1000697A65206E6F7420706C61757369626CA0
:100B2000652028342D3530292E0A004D3438205ABE
:100B30002D50726F626520526570656174616269E3
:100B40006C69747920746573740A003F566572622B
:100B50006F7365204C6576656C206E6F7420706CC9
:100B600061757369626C652028302D34292E0A0066
:100B70002569206D696E2C20256920736563004509
:100B80006E642066696C65206C69737400426567E9
:100B9000696E2066696C65206C697374004E6F2005
:100BA0006D6F76652E00426967426F782050726FD4
:100BB0002072656164792E00526573756D696E6788
:100BC000207072696E74005761697420666F7220BC
:100BD000757365722E2E2E00205A3A200020593A45
:100BE000200042656420583A2000205A3A20002014
:100BF000593A200042656420583A2000202B0020FA
:100C00000A436F72726563746564204265642048AC
:100C100065696768742076732E2042656420546F7E
:100C2000706F6C6F67793A200A00202B002B2D2DF6
:100C30002D2D2D2D2D2D2D2D2D2B0A007C2E2E2EE4
:100C400046726F6E742E2E2E7C0A007C4C65667484
:100C50002E2E52696768747C0A007C2E2E2E42610B
:100C6000636B2E2E2E2E7C0A002B2D2D2D2D2D2D3F
:100C70002D2D2D2D2D2B0A00200A4265642048655C
:100C80006967687420546F706F6772617068793A31
:100C9000200A004D65616E206F662073616D706C77
:100CA000656420706F696E74733A200020643A2086
:100CB0000020623A200045716E20636F65666669A8
:100CC0006369656E74733A20613A20002842296195
:100CD000636B00284629726F6E7400285229696779
:100CE000687400284C29656674003F4E756D626516
:100CF00072206F662070726F626564202850296FC1
:100D0000696E747320697320696D706C61757369A5
:100D1000626C65202832206D696E696D756D292EB3
:100D20000A0052756E6E696E6720696E20445259D2
:100D30002D52554E206D6F64650047323920417544
:100D4000746F20426564204C6576656C696E670A35
:100D5000003F2856296572626F7365204C65766581
:100D60006C20697320696D706C61757369626C6564
:100D70002028302D34292E00486F6D6520582F59BA
:100D8000206265666F7265205A00486F6D65205855
:100D90002F59206265666F7265205A005761726E26
:100DA000696E673A20486F6D696E672042756D7095
:100DB0002044697669736F72203C203100486F6D62
:100DC0006520582F59206265666F7265205A004869
:100DD0006F6D6520582F59206265666F7265205AC5
:100DE000005A2070726F6265206F75742E206265E4
:100DF00064005A2070726F6265206F75742E2062D5
:100E0000656400536C6565702E2E2E0020706F7324
:100E10006974696F6E206F7574206F662072616EE1
:100E200067652E003F50726F62652000220A0055F0
:100E30006E6B6E6F776E20636F6D6D616E643A20BE
:100E40002200256920686F757273202569206D69FD
:100E50006E7574657300446F6E65207072696E7490
:100E6000696E672066696C65004B494C4C45442EA1
:100E7000200053544F505045442E20005072696E4C
:100E80007465722073746F7070656420647565207A
:100E9000746F206572726F72732E204669782074A9
:100EA0006865206572726F7220616E64207573656B
:100EB000204D39393920746F2072657374617274F2
:100EC0002E202854656D7065726174757265206995
:100ED000732072657365742E2053657420697420C5
:100EE00061667465722072657374617274696E678D
:100EF00029004E6F204C696E65204E756D626572DB
:100F0000207769746820636865636B73756D2C2046
:100F10004C617374204C696E653A20004E6F20431B
:100F20006865636B73756D2077697468206C696E92
:100F300065206E756D6265722C204C617374204C57
:100F4000696E653A2000636865636B73756D206D2B
:100F500069736D617463682C204C617374204C69F3
:100F60006E653A20004C696E65204E756D62657243
:100F7000206973206E6F74204C617374204C696E0D
:100F800065204E756D6265722B312C204C61737437
:100F9000204C696E653A20004D313130006F6B0096
:100FA000446F6E6520736176696E672066696C6553
:100FB0002E004D3239002020506C616E6E657242F9
:100FC000756666657242797465733A2000204672D0
:100FD0006565204D656D6F72793A20004D61722014
:100FE0002033203230313600436F6D70696C656498
:100FF0003A2000286E6F6E652C2064656661756C02
:101000007420636F6E6669672900207C20417574C7
:10101000686F723A2000323031352D31322D313542
:101020002030303A303000204C61737420557064A9
:10103000617465643A200020312E312E302D5243E8
:10104000332028424250726F29004D61726C696EE4
:101050000020536F66747761726520526573657402
:1010600000205761746368646F672052657365740C
:10107000002042726F776E206F7574205265736521
:1010800074002045787465726E616C2052657365DA
:101090007400506F776572557000737461727400DC
:1010A0002200656E7175657565696E67202200FFA7
:1010B000FFFF0000A0400000A04000000040000032
:1010C00096430000704300009643000000000000BB
:1010D0000000000000000000964300007043000084
:1010E000964300000000000000000000000065635F
:1010F000686F3A004572726F723A0020746F6F2009
:101100006C6F6E6720657874727573696F6E20708E
:10111000726576656E7465640020636F6C6420652B
:101120007874727573696F6E2070726576656E740F
:101130006564007C3C3E5E2B3D3F2F5B5D3B2C2A73
:10114000225C004D383420582059205A2045006533
:101150006E6473746F7073206869743A205A00204B
:101160005A3A00656E6473746F7073206869743ADC
:1011700020590020593A00656E6473746F707320B3
:101180006869743A20580020583A00656E64737498
:101190006F7073206869743A200024F4D43050C30F
:1011A0008E20C2A24017828B7011127A910D816C31
:1011B000D90AA861E108C7586607615143061E4B6A
:1011C0005D05C145A7041A411104093D9803713911
:1011D00031034036DB0265339102D4305402802E55
:1011E0001D02632CEE01752AC501B028A00110274D
:1011F00081018F2564012B244B01E0223401AC21B5
:101200001F018D200D01801FFC00841EED00971D25
:10121000DF00B81CD200E61BC600201BBC00641A0D
:10122000B200B219A8000A19A0006A189900D117D3
:10123000910040178B00B516840031167E00B3155F
:1012400079003A157300C7146F0058146A00EE1342
:1012500066008813630025135E00C7125B006C12E2
:10126000570015125400C111510070114F00211187
:101270004B00D61049008D10470046104400021064
:101280004200C00F4000800F3E00420F3C00060F9E
:101290003B00CB0E3800930E37005C0E3500270E56
:1012A0003400F30D3200C10D3100900D3000600D9F
:1012B0002E00320D2D00050D2C00D90C2B00AE0C8C
:1012C0002900850C29005C0C2700350C27000E0C2A
:1012D0002600E80B2400C40B2400A00B23007D0B88
:1012E00023005A0B2100390B2100180B2000F80AAB
:1012F0001F00D90A1E00BB0A1E009D0A1D00800A9D
:101300001D00630A1C00470A1B002C0A1B00110A5F
:101310001A00F7091A00DD091900C4091900AB0900
:101320001900920917007B091800630917004C097E
:10133000160036091600200916000A091500F508DE
:101340001500E0081400CC081400B8081400A40824
:101350001400900813007D0812006B081300580851
:101360001200460812003408110023081100120868
:10137000110001081100F0071000E0071000D0076D
:101380001000C0071000B0070F00A1071000910760
:101390000E0083070F0074070F0065070E00570744
:1013A0000E0049070E003B070D002E070E00200718
:1013B0000D0013070D0006070D00F9060C00ED06E1
:1013C0000D00E0060C00D4060C00C8060C00BC069C
:1013D0000C00B0060C00A4060B0099060C008D064C
:1013E0000B0082060B0077060B006C060B006106F3
:1013F0000A0057060B004C060A0042060A0038068F
:101400000A002E060A0024060A001A060A00100620
:10141000090007060A00FD050900F4050900EB05AF
:101420000900E2050900D9050900D0050900C70532
:101430000900BE050900B5050800AD050800A505B1
:1014400009009C050800940508008C050800840527
:1014500008007C050800740508006C050700650598
:1014600008005D050700560508004E050700470502
:1014700007004005080038050700310507002A0568
:101480000700230507001C050600160507000F05C9
:1014900007000805060002050700FB040600F50426
:1014A0000700EE040600E8040600E2040700DB047F
:1014B0000600D5040600CF040600C9040600C304D4
:1014C0000600BD040600B7040600B1040500AC0424
:1014D0000600A6040600A00405009B04060095046F
:1014E0000500900406008A040500850405008004B8
:1014F00006007A04050075040500700405006B04FD
:10150000050066040500610405005C04050057043D
:101510000500520405004D0405004804050043047D
:1015200005003E0404003A040500350405003004BB
:1015300004002C04050027040400230405001E04F5
:1015400004001A04040016040500110404000D042C
:101550000400090405000404040000040400FC0362
:101560000400F8030400F4030400F0030400EC0397
:101570000400E8030400E4030400E0030400DC03C7
:101580000400D8030400D4030400D0030400CC03F7
:101590000400C8030300C503030024F404D9201B7E
:1015A000C40C5C0E9804C4095F0265077101F40560
:1015B000F900FB04B30048048700C1036900580325
:1015C000550003034500BE023A0084023100530275
:1015D0002A002902250004022000E4011C00C801A1
:1015E0001900AF0117009801140084011300710164
:1015F00010006101100051010E0043010D00360181
:101600000B002B010B0020010B00150109000C0140
:10161000090003010800FB000800F3000800EB00CC
:101620000700E4000600DE000600D8000600D20035
:101630000600CC000500C7000500C2000500BD0083
:101640000400B9000400B5000400B1000400AD00BE
:101650000400A9000400A5000300A20003009F00ED
:1016600004009B0003009800030095000200930013
:101670000300900003008D0002008B00030088002F
:1016800002008600020084000300810002007F0047
:1016900002007D0002007B0002007900020077005A
:1016A0000100760002007400020072000100710067
:1016B00002006F0002006D0001006C0002006A0071
:1016C000010069000200670001006600010065007A
:1016D000010064000200620001006100010060007E
:1016E00001005F0002005D0001005C0001005B0082
:1016F00001005A0001005900010058000100570084
:101700000100560001005500010054000100530083
:101710000000530001005200010051000100500080
:1017200001004F0001004E0000004E0001004D007E
:1017300001004C0001004B0000004B0001004A007A
:101740000100490001004800000048000100470076
:101750000100460000004600010045000000450071
:10176000010044000100430000004300010042006A
:101770000000420001004100000041000100400063
:1017800001003F0000003F0001003E0000003E005D
:1017900001003D0000003D0001003C0000003C0055
:1017A00000003C0001003B0000003B0001003A004B
:1017B00000003A0001003900000039000100380043
:1017C000000038000000380001003700000037003A
:1017D0000100360000003600000036000100350030
:1017E0000000350000003500010034000000340026
:1017F000000034000100330000003300000033001B
:10180000010032000000320000003200010031000F
:101810000000310000003100010030000000300005
:101820000000300001002F0000002F0000002F00FA
:1018300000002F0001002E0000002E0000002E00EE
:1018400001002D0000002D0000002D0000002D00E3
:1018500001002C0000002C0000002C0000002C00D7
:1018600001002B0000002B0000002B0000002B00CB
:1018700001002A0000002A0000002A0000002A00BF
:1018800001002900000029000000290000002900B3
:1018900000002900010028000000280000002800A6
:1018A0000000280000002800010027000000270099
:1018B000000027000000270000002700010026008C
:1018C0000000260000002600000026000000260080
:1018D0000100250000002500000025000000250073
:1018E0000000250000002500010024000000240065
:1018F0000000240000002400000024000100230058
:10190000000023000000230000002300000023004B
:10191000000023000000230001002200000022003C
:10192000000022000000220000002200000022002F
:101930000100210000002100000021000000210022
:101940000000210000002100000021000100200013
:101950000000200000002000000020000000200007
:1019600000002000000020000000200001001F00F7
:1019700000001F0000001F0000001F0000001F00EB
:1019800000001F0000001F0001001E0000001E00DC
:1019900000001E0000001E0000004D494E54454D41
:1019A0005020747269676765726564004572723AA7
:1019B000204D494E54454D5020424544004D41581C
:1019C00054454D50207472696767657265640045BF
:1019D00072723A204D415854454D502042454400C2
:1019E000546865726D616C2052756E617761790023
:1019F000544845524D414C2052554E415741590093
:101A000048656174696E67206661696C6564004849
:101A1000656174696E67206661696C6564004D4933
:101A20004E54454D50207472696767657265640055
:101A30004572723A204D494E54454D5000626564DE
:101A4000002C2073797374656D2073746F707065EA
:101A50006421204865617465725F49443A20004DF5
:101A6000415854454D5020747269676765726564CA
:101A7000004572723A204D415854454D50004B6418
:101A8000200023646566696E652020444546415503
:101A90004C545F004B69200023646566696E6520C5
:101AA0002044454641554C545F004B702000236450
:101AB0006566696E65202044454641554C545F007B
:101AC000504944204175746F74756E652066696E67
:101AD0006973686564212050757420746865206C92
:101AE000617374204B702C204B6920616E64204B15
:101AF0006420636F6E7374616E74732066726F6DB1
:101B00002062656C6F7720696E746F20436F6E661C
:101B1000696775726174696F6E2E68005049442060
:101B20004175746F74756E65206661696C656421BA
:101B30002074696D656F75740020403A00543A0056
:101B4000423A00504944204175746F74756E6520A7
:101B50006661696C6564212054656D70657261749D
:101B600075726520746F6F206869676800204B6428
:101B70003A2000204B693A2000204B703A20002088
:101B8000436C61737369632050494420002054758D
:101B90003A2000204B753A2000206D61783A2000F1
:101BA000206D696E3A200020643A2000206269614D
:101BB000733A200000000000300E0100C00E0A0041
:101BC000500F1400D00F1E0060102800E0103200EB
:101BD00070113C00F01146007012500000135A00C2
:101BE0008013640000146E009014780010158200B9
:101BF00090158C00101696009016A0001017AA00E1
:101C00009017B4001018BE009018C8001019D20028
:101C10009019DC00101AE600801AF000001BFA0090
:101C2000801B0401F01B0E01701C1801F01C220126
:101C3000601D2C01E01D3601501E4001D01E4A01DE
:101C4000401F5401B01F5E0130206801A0207201C6
:101C500010217C0190218601002290016026F40170
:101C6000902A5802802EBC0250322003E0358403B3
:101C70005039E803803C4C041000C90210012C01CB
:101C80004001220170011801B0010E01F0010401B0
:101C90005002FA00B002F0003003E600D003DC008E
:101CA0009004D2007005C800A006BE000008B40071
:101CB000B009AA00D00BA000600E960060118C0045
:101CC0000015820020197800C01D6E00A02264005B
:101CD000B0275A00902C500000314600E0343C0000
:101CE00010383200903A2800603C1E00A03D1400DD
:101CF000803E0A00203F0000436172642072656DDF
:101D00006F766564004361726420696E73657274F6
:101D10006564004D343238000920000920002D2D63
:101D20002D2E2D2D002D2D2D002D2D2D002D2D2D69
:101D3000002D2D3A2D2D00466C6F7700466C6F7785
:101D4000005370656564005370656564004D61699A
:101D50006E004D6F76652058004D6F7665205900F6
:101D60004D6F7665205A004578747275646572000F
:101D70004578747275646572004D6F7665205A00FF
:101D80004D6F76652059004D6F76652058004D6F78
:101D900076652061786973004D6F766520302E314D
:101DA0006D6D004D6F766520316D6D004D6F766500
:101DB0002031306D6D005072657061726500507237
:101DC000656865617420504C412042656400507222
:101DD000656865617420504C410050726570617295
:101DE0006500507265686561742041425320426508
:101DF00064005072656865617420414253005072FE
:101E00006570617265004D3830005377697463689E
:101E100020706F776572206F6E004D3831005377F8
:101E20006974636820706F776572206F666600431F
:101E30006F6F6C646F776E005072656865617420B7
:101E4000414253005072656865617420504C4100F6
:101E50004D38340044697361626C65207374657039
:101E600070657273004D6F76652061786973004705
:101E70003239004C6576656C206265640053657488
:101E800020686F6D65206F666673657473004732F6
:101E900038004175746F20686F6D65004D61696E23
:101EA0000046616E2073706565640046616E207344
:101EB000706565640042656400426564004E6F7A37
:101EC0007A6C65004E6F7A7A6C650053746F726538
:101ED000206D656D6F727900426564004265640033
:101EE0004E6F7A7A6C65004E6F7A7A6C6500466147
:101EF0006E2073706565640046616E207370656561
:101F0000640054656D706572617475726500537418
:101F10006F7265206D656D6F727900426564004275
:101F20006564004E6F7A7A6C65004E6F7A7A6C65E4
:101F30000046616E2073706565640046616E2073B3
:101F4000706565640054656D706572617475726565
:101F500000507265686561742041425320636F6E62
:101F600066005072656865617420504C4120636F53
:101F70006E66005049442D43005049442D430050A3
:101F800049442D44005049442D44005049442D49B2
:101F9000005049442D49005049442D5000504944B7
:101FA0002D500020082046616374002008204661FF
:101FB0006374002008204D6178002008204D61786E
:101FC000002008204D696E002008204D696E0041F8
:101FD00075746F74656D70004F6666004F6E2000FB
:101FE000436F6E74726F6C004573746570732F6D00
:101FF0006D004573746570732F6D6D005A73746551
:1020000070732F6D6D005A73746570732F6D6D0052
:102010005973746570732F6D6D00597374657073A7
:102020002F6D6D005873746570732F6D6D0058734C
:10203000746570732F6D6D00412D74726176656CDF
:1020400000412D74726176656C00412D7265747269
:1020500061637400412D7265747261637400416D37
:102060006178206500416D6178206500416D61787F
:10207000207A00416D6178207A00416D6178207985
:1020800000416D6178207900416D617820780041D0
:102090006D61782078005654726176206D696E000B
:1020A0005654726176206D696E00566D696E0056E9
:1020B0006D696E00566D6178206500566D617820FF
:1020C0006500566D6178207A00566D6178207A003F
:1020D000566D6178207900566D6178207900566DD3
:1020E0006178207800566D617820780056652D6AF9
:1020F00065726B0056652D6A65726B00567A2D6AA3
:1021000065726B00567A2D6A65726B005678792D70
:102110006A65726B005678792D6A65726B0041634F
:1021200063656C00416363656C005A204F6666739B
:102130006574005A204F666673657400436F6E7451
:10214000726F6C0046696C2E204469612E004669EE
:102150006C2E204469612E004520696E206D6D3320
:10216000004F6666004F6E2000436F6E74726F6C96
:1021700000526573746F7265206661696C73616685
:1021800065004C6F6164206D656D6F7279005374EA
:102190006F7265206D656D6F72790046696C616D57
:1021A000656E74004D6F74696F6E0054656D706577
:1021B000726174757265004D61696E004D32340054
:1021C0004D323320257300022E2E004D61696E00C2
:1021D0004E6F2053442063617264005072696E74C4
:1021E0002066726F6D2053440053746F70207072BC
:1021F000696E7400526573756D65207072696E74D6
:10220000005061757365207072696E7400436F6E63
:1022100074726F6C00507265706172650054756EF7
:102220006500496E666F2073637265656E00000617
:102230000900FE070192032120FFFF08FF07FF00AE
:1022400000000600000107070602008080808080F1
:102250000080030202060105A0A005070706000092
:102260005050F850F850500507070600002078A09D
:102270007028F020050707060000C0C8102040980D
:10228000180507070600006090A040A890680203A8
:1022900003060104C04080030707060100204080B8
:1022A0008080402003070706010080402020204056
:1022B0008005050506000120A870A8200505050673
:1022C00000012020F820200203030602FFC0408006
:1022D000050101060003F8020202060200C0C00563
:1022E00005050600010810204080050707060000CC
:1022F0007088888888887003070706010040C040FE
:10230000404040E0050707060000708808708080A4
:10231000F8050707060000F81020100808F0050768
:102320000706000010305090F8101005070706004F
:1023300000F880F008088870050707060000708024
:1023400080F0888870050707060000F80810202034
:1023500020200507070600007088887088887005AF
:1023600007070600007088887808087002050506CF
:102370000200C0C000C0C00206060602FFC0C000C6
:10238000C040800407070600001020408040201055
:10239000050303060002F800F804070706010080A1
:1023A00040201020408005070706000070880810B4
:1023B00020002005070706000070880868A8A8709C
:1023C000050707060000708888F8888888050707D1
:1023D000060000F08888F08888F0050707060000EE
:1023E00070888080808870050707060000F0888864
:1023F000888888F0050707060000F88080F0808054
:10240000F8050707060000F88080F0808080050747
:1024100007060000708880B88888700507070600E6
:1024200000888888F888888801070706020080806D
:10243000808080808005070706000038101010108B
:1024400090600507070600008890A0C0A09088054E
:102450000707060000808080808080F80507070657
:10246000000088D8A88888888805070706000088A3
:1024700088C8A8988888050707060000708888889B
:10248000888870050707060000F08888F080808043
:1024900005070706000070888888A8906805070768
:1024A000060000F08888F0A0908805070706000065
:1024B000788080700808F0050707060000F82020E3
:1024C0002020202005070706000088888888888843
:1024D000700507070600008888888888502005074F
:1024E000070600008888888888A850050707060026
:1024F00000888850205088880507070600008888D3
:102500008850202020050707060000F8081020400A
:1025100080F8030707060100E08080808080E005E6
:10252000050506000180402010080307070601008A
:10253000E02020202020E00503030600042050882E
:10254000050101060000F8020202060205804005AE
:102550000505060000700878887805070706000062
:102560008080B0C88888F00505050600007080806E
:1025700088700507070600000808689888887805AD
:1025800005050600007088F8807005070706000042
:102590003048E0404040400506060600FF7088884D
:1025A0007808700507070600008080B0C888888812
:1025B00001070706020080008080808080030808F1
:1025C0000601FF200020202020A04004070706006D
:1025D00000808090A0C0A090030707060100C040C3
:1025E00040404040E0050505060000D0A8A8A8A886
:1025F000050505060000B0C88888880505050600A1
:102600000070888888700506060600FFF08888F04C
:1026100080800506060600FF78888878080805058A
:1026200005060000B0C88080800505050600007022
:10263000807008F00407070600004040E04040407A
:102640003005050506000088888898680505050698
:10265000000088888850200505050600008888A8A5
:10266000A85005050506000088502050880506067C
:102670000600FF888888780870050505060000F8C0
:10268000102040F80307070601002040408040402A
:102690002001070706020080808080808080030779
:1026A00007060100804040204040800502020600ED
:1026B0000268900000000600000000000600000014
:1026C00000000600000000000600000000000600F8
:1026D00000000000060000000000060000000000EE
:1026E00006000000000006000000000006000000D8
:1026F00000000600000000000600000000000600C8
:1027000000000000060000000000060000000000BD
:1027100006000000000006000000000006000000A7
:102720000000060000000000060000000000060097
:10273000000000000600000000000600000000008D
:102740000600000000000600000000000600000077
:102750000000060000000000060000000000060067
:10276000000000000600000000000600000000005D
:102770000600000000000600000000000600000146
:10278000070706020080008080808080050707061A
:1027900000002070A8A0A8702005070706000030E0
:1027A0004040E04050A805050506000088705070C4
:1027B00088050707060000885020F820F820010748
:1027C00007060200808080008080800508080600DF
:1027D000003048205050209060030101060107A0FE
:1027E000050707060000F888B8B8B888F805070795
:1027F000060001700878887800F8050505060001D4
:102800002850A05028050303060001F8080802021A
:10281000020602064080050707060000F888A8881F
:1028200098A8F8050101060006F804040406000350
:10283000609090600507070600002020F820200027
:10284000F804050506000360902040F00305050626
:102850000003E020E020E0020202060206408005BC
:1028600008080600FF8888888898E88080050707A0
:1028700006000078989878181818020202060202DA
:10288000C0C00202020602FF4080030505060003E5
:1028900040C04040E0050707060001708888887046
:1028A00000F8050505060001A0502850A0050707FF
:1028B0000600008890A858B8080805070706000019
:1028C0008890B848982038050808060000C040C025
:1028D00048D8380808050707060000200020408077
:1028E00088700508080600004020007088F8888875
:1028F0000508080600001020007088F88888050880
:10290000080600002050007088F88888050808062E
:1029100000006890007088F88888050808060000A4
:102920005000708888F88888050808060000205044
:10293000207088F888880507070600003860A0B86E
:10294000E0A0B80508080600FF7088808088702025
:1029500060050808060000402000F880F080F805B7
:102960000808060000081000F880F080F805080844
:10297000060000205000F880F080F80507070600E8
:10298000005000F880F080F803080806010080403D
:1029900000E0404040E0030808060100204000E05D
:1029A000404040E003080806010040A000E040402D
:1029B00040E0030707060100A000E0404040E005BA
:1029C0000707060000704848E848487005080806F0
:1029D000000068900088C8A89888050808060000CC
:1029E000402070888888887005080806000010203C
:1029F00070888888887005080806000020500070DC
:102A0000888888700508080600006890007088882B
:102A10008870050808060000500070888888887053
:102A200005050506000188502050880508080600A5
:102A3000FF1070A8A8A8A87040050808060000406C
:102A4000208888888888700508080600001020887B
:102A5000888888887005080806000020500088884B
:102A600088887005080806000050008888888888D3
:102A7000700508080600001020885020202020053E
:102A800009090600FFC040704848704040E0040853
:102A9000080601FF609090A09090E080050808066D
:102AA00000004020007008788878050808060000BB
:102AB000102000700878887805080806000020506B
:102AC0000070087888780508080600006890007093
:102AD0000878887805070706000050007008788895
:102AE00078050808060000205020700878887805CE
:102AF0000606060000D02878A0A8500506060600A5
:102B0000FF708088702060050808060000402000E3
:102B10007088F88070050808060000102000708892
:102B2000F880700508080600002050007088F880C2
:102B30007005070706000050007088F880700308D1
:102B40000806010080400040C04040E0030808063D
:102B5000010020400040C04040E00308080601009A
:102B600040A00040C04040E0030707060100A0006D
:102B700040C04040E0050707060000A040A01078D4
:102B80008870050808060000689000B0C88888882A
:102B90000508080600004020007088888870050835
:102BA0000806000010200070888888700508080654
:102BB0000000205000708888887005080806000012
:102BC000689000708888887005070706000050002C
:102BD00070888888700505050600012000F800202F
:102BE0000507070600FF1070A8A8A8704005080890
:102BF00006000040200088888898680508080600BC
:102C000000102000888888986805080806000020C1
:102C100050008888889868050707060000500088DB
:102C2000888898680509090600FF102000888888B0
:102C3000F808700407070601FFC04060506040E0DC
:102C40000508080600FF500088888878087000068C
:102C50000900FE000000000001090008FE00000558
:102C6000080806000040F0C8888898781005080811
:102C7000060000C0F88888888888F80505050600E1
:102C8000012030F830200508080600002070F820E8
:102C9000202020E00509090600FF2070A8A8B888B8
:102CA0008870200509090600FFE080C0B0A8283020
:102CB00028280509090600FFF8A88888888888A8B8
:102CC000F8050A0A0600FE205050505088A8A8882F
:102CD0007003030306000340A04000000000000052
:102CE0000000000000007FFFE00000000000000086
:102CF00000000000007000E0000000000000000084
:102D00000000000061F8600000000000000000000A
:102D100000000041F820000000000000000000005A
:102D2000000040F020000000000000000000000053
:102D300000406020000000000000000000000000D3
:102D40005801A07F80000000000000004104005CEA
:102D500063A0FFC0000000000000002082005EF7BA
:102D6000A0FFC0000000000000002082005EF7A06D
:102D7000FFC0000000000000004104005C63A07F71
:102D800080000000000000008208005801A07F8041
:102D900000000000000001041000406020FFC0009F
:102DA00000000000000104100040F020FFC00000FF
:102DB000000000000082080041F820FFC000000071
:102DC0000000000041040061F8603F0000000000C6
:102DD0000000000000007000E01E00000000000085
:102DE0000001FFFF807FFFE00C00000000000000FA
:102DF00001FFFF8000000000000000000000000054
:102E00000000007FFFE00000000000000000000064
:102E100000007000E0000000000000000000000062
:102E200000630C60000000000000000000000000D3
:102E3000470E200000000000000000000000004FCE
:102E40000F200000000000000000000000005F0FE5
:102E5000A00000000000000000000000005E07A0CD
:102E60007F8000000000000000410400406020FF5F
:102E7000C00000000000000020820040F020FFC0E1
:102E80000000000000000020820040F020FFC00091
:102E90000000000000004104004060207F8000002E
:102EA00000000000008208005E07A07F8000000094
:102EB000000000010410005F0FA0FFC00000000030
:102EC0000000010410004F0F20FFC00000000000B0
:102ED0000000820800470E20FFC000000000000034
:102EE00000410400630C603F00000000000000008F
:102EF0000000007000E01E0000000000000001FF64
:102F0000FF807FFFE00C0000000000000001FFFFD9
:102F100080000000FFFFFF800FFC0F81F80FFC0016
:102F2000F81E0FFFFFFF800FFF0F83FE0FFF03FE52
:102F30001E0FFFFFFF800FFF0F87FF0FFF07FF1F11
:102F40001FE00003800FFF8F8FFF0FFF87FF0F1E13
:102F5000E00003800F8F8F8F8F8F8F8F8F8F1EE0FA
:102F60003E03800F8F8F8F8F8F8F8F8F87BCE03EB8
:102F700003800F8F8F8F8F8F8F8F8F87BCE03E03E3
:102F8000800F8F8F8F8F8F8F8F8F87FCE03E038016
:102F90000FFF8F8F8F8FFF8F8F83F8E03E03800F9F
:102FA000FF0F8F800FFF0F8F83F8E01C03800FFC53
:102FB0000F8F800FFC0F8F83F8E00803800FFF0F47
:102FC0008F9F8FFF0F8F83F8E00003800FFF8F8F9D
:102FD0009F8FFF8F8F83F8E00003800F8F8F8F9F6D
:102FE0008F8F8F8F87FCE00003800F8F8F8F8F8FE5
:102FF0008F8F8F87BCE00003800F8F8F8F8F8F8F15
:103000008F8F87BCE00003800F8F8F8F8F8F8F8F04
:103010008F873CE00003800F8F8F8F8F8F8F8F8F74
:103020008F1EE00003800F8F8F8F8F8F8F8F8F8F7A
:103030001EE00003800FFF8F8FFF8FFF87FF0F1EA3
:10304000E00003800FFF8F87FF8FFF87FF1F1FE0C8
:103050000003800FFF0F83FB8FFF03FE1E0FE000B6
:1030600003800FFE0F81F38FFE00F81E0FE00003B8
:10307000800000000000000000000000E00003806D
:103080000000000000000000000000E000038000DD
:1030900000000000000000000000E7FFF3800000D7
:1030A000000000000000000000E7FFF380000000C7
:1030B0000000000000000000E000038000000000AD
:1030C00000000000000000E000038000000000009D
:1030D000000000000000E00003800000000000008D
:1030E0000000000000FFFFFF800000000000000063
:1030F00000000000FFFFFF80000000000000000053
:10310000000000FFFFFF8000000000000000000042
:103110000000207A3A200020793A200020783A20D6
:103120000000000A0B02090C0D0E08070304010041
:10313000000000000000000000000000000000008F
:10314000000000000000000000000000001211104C
:10315000000000000000000000000000000000006F
:1031600000000000000000010210202008081020CC
:103170004010204080020102010804020101020403
:1031800008102040808040201008040201800402C2
:103190000180402010080402010804020101020419
:1031A0000810204080010204081020408005050519
:1031B00005070508080808020202020A0A080804AE
:1031C00004040401010101010101010303030303DC
:1031D000030303040707070C0C0C0C0C0C0C0C026B
:1031E00002020206060606060606060B0B0B0B0B72
:1031F0000B0B0B000020002300260029002C002FC1
:103200000032000001000003010601090100002254
:1032100000250028002B002E0031003400020100A0
:1032200000050108010B0100002100240027002AED
:10323000002D003000330001010000040107010AE5
:10324000014E414E494E495459494E46CDCCCC3D94
:103250000AD7233C17B7D13877CC2B329595E62483
:103260001FB14F0A000020410000C84200401C4628
:1032700020BCBE4CCA1B0E5AAEC59D74326BE5F223
:1032800021F8366B11241FBECFEFD1E2DEBFCDBFD8
:1032900000E00CBF14E0A0E0B2E0EEE3FBE102E0EE
:1032A0000BBF02C007900D92A63BB107D9F726E1EC
:1032B000A6EBB4E001C01D92AC36B207E1F712E311
:1032C000C2E8D2E300E006C022970109FE010BBF6D
:1032D0000F945907CC37D10780E00807A9F70F945E
:1032E00008020D948E0D0C940000452BC1F0209126
:1032F0000A01206220930A013FB7F89420910B0144
:10330000206220930B013FBF0E94D4FF9FB7F89427
:1033100080910B018F7D80930B019FBF08950C94CA
:10332000D4FFFC0114821782138212828EE094E093
:103330009183808308952EE034E0FC013183208363
:103340002781222319F004960C9481960895CF9238
:10335000DF92EF92FF920F931F93CF93DF93EC01D5
:103360008F96DFDFCE01805B9F4FDBDF7E012FE694
:10337000E20EF11C87016E013BE5C31A3EEFD30A52
:10338000C801CFDF015E1F4F0C151D05C9F7FE01F7
:10339000E955FE4F89E1818314823596178ACE0163
:1033A00086539E4FBEDFFE01E558FD4F108211820D
:1033B00012821382389610821182128213821A822C
:1033C0001B8218821982F80111821082FE01E751D6
:1033D000FE4F108286E391E0F7019C01119221508B
:1033E0003040E1F7FE01E957FD4F81E080831EA6E2
:1033F0001DA60E94A5FFC158DD4F68577C4E8F4F18
:103400009F4F688379838A839B83DF91CF911F913C
:103410000F91FF90EF90DF90CF900895FC0120E096
:103420003EE2DB014C91403241F0283011F4308310
:103430003196DB014C91408331962F5F6F5F7F4F58
:103440002B3079F7108208952F923F924F925F921E
:103450006F927F928F929F92AF92BF92CF92DF92A4
:10346000EF92FF920F931F93CF93DF93CDB7DEB709
:10347000C657D1090FB6F894DEBF0FBECDBF8C0181
:103480006B015A0129012DB73EB7E3963FAF2EAF2E
:10349000E397AD961FAEAD9734E0A30EB11C4296F4
:1034A000E5969FAF8EAFE597180198E7291A9DEF33
:1034B000390AF801E657FD4FAF96FFAFEEAFAF9771
:1034C0003801F5E06F0E711C7E012FE5E20EF11C54
:1034D00080E490E08C0F9D1F0496E7969FAF8EAF1F
:1034E000E797E5964EAD5FADE597BE016F5F7F4F05
:1034F000C5010E94E79418160CF03EC12C85322FAE
:103500003871303109F0BCC0F1018081918101979F
:10351000029708F4B5C02DB73EB7E1963FAF2EAF86
:10352000E197BE016F5F7F4FC70178DF81E0F60151
:10353000908191119DC0E1E0F0E0D7010D90002055
:10354000E9F7EE19FF09EA0FFB1F31962DB73EB7D9
:103550002E1B3F0B0FB6F8943EBF0FBE2DBFEDB72D
:10356000FEB731964F01882319F06CE173E001C07A
:10357000B601C4010F948F0AB701C4010F94700AF9
:103580006CE173E0C4010F94700ACE01805C9F4F20
:10359000C8DE21E0A701B501E7968EAD9FADE797A4
:1035A0000E947898811137C0F10180819181892B27
:1035B00091F5EEEEF0E18491882341F09091C00006
:1035C00095FFFCCF8093C6003196F5CFEEE1F3E096
:1035D0008191882339F09091C00095FFFCCF8093B2
:1035E000C600F6CF8091C00085FFFCCF8AE08093B3
:1035F000C600F7018191882339F09091C00095FFB2
:10360000FCCF8093C600F6CF8091C00085FFFCCF31
:103610008AE08093C6008BE1FE01EC5BFF4FDE0188
:10362000959601900D928A95E1F724968EAD9FAD07
:1036300024979CA38BA38EE094E09AA389A320E017
:1036400030E0AE014F5D5F4FB401C801FDDECE0139
:10365000819671DECE01805C9F4F6DDEE1962EADCE
:103660003FADE1970FB6F8943EBF0FBE2DBF39CFE7
:1036700080E001900020E9F73197EC19FD095DCF5A
:103680008981882309F478C08E3209F42ACFF801A1
:1036900082898E3209F425CF23FD23CF81E030319A
:1036A00009F080E0F8018483811108C0898587349E
:1036B00009F017CF8A858E3709F413CFF101808185
:1036C00091818130910569F08230910581F1892BDA
:1036D00009F007CFBE016F5F7F4FC3019FDEF60188
:1036E00010C0AF96EEADFFADAF978081918101968E
:1036F00091838083F6CE9091C00095FFFCCF80939C
:10370000C60081918111F7CFF3018191882339F0AF
:103710009091C00095FFFCCF8093C600F6CF8091BA
:10372000C00085FFFCCF8AE08093C600DACEBE01E0
:103730006F5F7F4FC30172DE4114510439F0B30152
:10374000C2010F945D0A892B79F416C0AD96FFADC6
:10375000AD972F2F30E0AF96EEADFFADAF978081E4
:1037600091812817390741F0AD96FFADAD97FF5F06
:10377000AD96FFAFAD97B5CEE3962EAD3FADE397D7
:103780000FB6F8943EBF0FBE2DBFCA58DF4F0FB61D
:10379000F894DEBF0FBECDBFDF91CF911F910F9187
:1037A000FF90EF90DF90CF90BF90AF909F908F9061
:1037B0007F906F905F904F903F902F900895EF9281
:1037C000FF920F931F93CF93DF93CDB7DEB76F9721
:1037D0000FB6F894DEBF0FBECDBF8C01FC01E857D9
:1037E000FD4F118210827C0183E3E80EF11C40E062
:1037F00050E0BA01C7010E949E958BE1F701DE01FE
:10380000159601900D928A95E1F7F80181A992A988
:103810009C838B838EE094E09A83898320E030E060
:10382000AE014F5F5F4F65E274E0C8010DDECE016F
:10383000019681DD6F960FB6F894DEBF0FBECDBF47
:10384000DF91CF911F910F91FF90EF9008952BE1A1
:10385000FB013496DC01149601900D922A95E1F754
:10386000FB0122813381FC01338322830895EF928F
:10387000FF920F931F93CF93DF93EC011B828EA9CE
:10388000882321F0CE01C3960E9481967E0189E5AE
:10389000E81A8EEFF80A45E360E0C7010E94FE9047
:1038A00081111FC0EEEEF0E18491882341F09091E8
:1038B000C00095FFFCCF8093C6003196F5CFE4E0C1
:1038C000F4E08491882341F09091C00095FFFCCFF3
:1038D0008093C6003196F5CF8091C00085FFFCCF64
:1038E00076C08E0104551E4F41E0B701C8010E9409
:1038F000829E811126C040E0B701C8010E94829ECD
:1039000081111FC0E4EFF0E18491882341F0909190
:10391000C00095FFFCCF8093C6003196F5CFE1EF54
:10392000F3E08491882341F09091C00095FFFCCF93
:103930008093C6003196F5CF8091C00085FFFCCF03
:1039400046C0B801CE01C3960E948B9381111FC05F
:10395000E4EFF0E18491882341F09091C00095FF5D
:10396000FCCF8093C6003196F5CFE1EEF3E0849171
:10397000882341F09091C00095FFFCCF8093C60052
:103980003196F5CF8091C00085FFFCCF20C081E04B
:103990008B83EEEEF0E18491882341F09091C0009A
:1039A00095FFFCCF8093C6003196F5CFE6EDF3E0AE
:1039B0008491882341F09091C00095FFFCCF8093C3
:1039C000C6003196F5CF8091C00085FFFCCF8AE01C
:1039D0008093C6008E01015D1F4FB801CE01805B50
:1039E0009F4F35DFC25BDF4F19830883DF91CF9193
:1039F0001F910F91FF90EF900895FC0112821382A6
:103A00000895FC012381222311F021E022830895EF
:103A1000FC012281211112820895AF92BF92CF92B0
:103A2000DF92EF92FF920F931F93CF93DF931F923A
:103A3000CDB7DEB78C018FE2FB0181935F01D12C02
:103A400041E07801FBE5EF1AFEEFFF0A8FE1C82E97
:103A50002D2D30E0F7018081918128173907D8F4A6
:103A6000C29EC001C39E900D11248D589F4FB50179
:103A7000800F911F49830E943293C50149815C01E7
:103A80000196F5012081222321F04D3810F44F5F7B
:103A9000F6CFD394DDCF47FD11C0B501C8018253E5
:103AA0009E4F0F90DF91CF911F910F91FF90EF905C
:103AB000DF90CF90BF90AF900C943293F5011082BD
:103AC0000F90DF91CF911F910F91FF90EF90DF90BA
:103AD000CF90BF90AF9008953F924F925F926F92B8
:103AE0007F928F929F92AF92BF92CF92DF92EF928E
:103AF000FF920F931F93CF93DF93CDB7DEB7AC97B1
:103B00000FB6F894DEBF0FBECDBF7C015B01FC0198
:103B10008381882309F4EDC0C70182539E4F0E9420
:103B20008196F7011282CE0101966C01FADB270122
:103B30009EE4490E511CC7018F96F2019183808348
:103B4000F50180818F3209F077C06FE270E0C50126
:103B50000F947B0A8C010F5F1F4F9AE0392E0115DD
:103B6000110509F46FC06FE270E0C8010F947B0A81
:103B70004C01009709F467C00817190708F063C0E3
:103B80003C01601A710AA301B801CE0180960F941E
:103B9000A40AE0E2F0E0EC0FFD1FE60DF71D108235
:103BA000FE01B0968191882339F09091C00095FF75
:103BB000FCCF8093C600F6CF8091C00085FFFCCF7C
:103BC0003092C600F201608171816115710519F0B2
:103BD0006C5F7F4F02C060E070E021E0AE01405EAC
:103BE0005F4FCE0105960E94789881111EC0E2EBCE
:103BF000F2E08491882341F09091C00095FFFCCFC2
:103C00008093C6003196F5CFFE01B096819188234E
:103C100039F09091C00095FFFCCF8093C600F6CF9D
:103C20008091C00085FFFCCF5FC0F201D182C082CD
:103C300084010F5F1F4F93CFC701805B9F4FF2013D
:103C4000918380838501F20180819181009711F039
:103C5000049602C080E090E0B8010E944E99811164
:103C600003C0ECE8F2E02EC0E4EAF2E0849188239D
:103C700041F09091C00095FFFCCF8093C600319633
:103C8000F5CFF8018191882339F09091C00095FF1C
:103C9000FCCF8093C600F6CF8091C00085FFFCCF9B
:103CA0008AE08093C600F701ED57FD4F1082118224
:103CB000128213821CC09091C00095FFFCCF8093AC
:103CC000C600319684918111F6CFF8018191882345
:103CD00039F09091C00095FFFCCF8093C600F6CFDD
:103CE0008091C00085FFFCCF8EE28093C600C601A4
:103CF00022DBAC960FB6F894DEBF0FBECDBFDF91CE
:103D0000CF911F910F91FF90EF90DF90CF90BF90D8
:103D1000AF909F908F907F906F905F904F903F906B
:103D20000895CF93DF93EC018B81811103C0EAE604
:103D3000F2E039C0EAE7F2E08491882341F0909103
:103D4000C00095FFFCCF8093C6003196F5CFFE01F1
:103D5000ED57FD4F40815181628173812AE030E04F
:103D600086EB94E00E948A318091C00085FFFCCFF1
:103D70008FE28093C600C558DD4F488159816A8122
:103D80007B812AE030E086EB94E00E948A318091CA
:103D9000C00085FFFCCF0EC09091C00095FFFCCF06
:103DA0008093C600319684918111F6CF8091C00036
:103DB00085FFFCCF8AE08093C600DF91CF91089504
:103DC000AF92BF92CF92DF92EF92FF920F931F9329
:103DD000CF93DF935C01EB01FB0101900020E9F739
:103DE0008F0101501109061B170B6C01F2E3CF1A6A
:103DF000FEEFDF0AF60110826EE470E0CE010F9450
:103E00007B0A7C01009729F4F8013197EC0FFD1F24
:103E10000DC060E270E00F947B0AEC0121966AE22B
:103E200070E0C7010F947B0AFC0131978DE081831C
:103E30008AE082831382BE01C50186539E4F0E9491
:103E40002B9BF6018081882309F1E4EFF0E1849156
:103E5000882341F09091C00095FFFCCF8093C6006D
:103E60003196F5CFE4E5F2E08491882341F090911A
:103E7000C00095FFFCCF8093C6003196F5CF8091AE
:103E8000C00085FFFCCF8AE08093C600DF91CF9110
:103E90001F910F91FF90EF90DF90CF90BF90AF9068
:103EA00008952F923F924F925F926F927F928F92DE
:103EB0009F92AF92BF92CF92DF92EF92FF920F93B9
:103EC0001F93CF93DF93CDB7DEB7CC5BD1090FB68D
:103ED000F894DEBF0FBECDBF8C0189579D4F5C01AA
:103EE000611112C0FC018081882309F4B1C03897A8
:103EF000C080D180E280F3800E94A5FFC616D7065D
:103F0000E806F90608F4A4C0F5011082F8018381DF
:103F1000811107C0C801ABDCF8018381882309F453
:103F200097C0F80186A58F9385A58F938BE492E0C7
:103F30009F938F937E01F3EBEF0EF11CFF92EF92B4
:103F40000F94B30A0F900F900F900F900F900F9057
:103F5000B12CF70101900020E9F73197EE19FF0924
:103F6000BE1684F46701CB0CD11CB7FCDA94F601C1
:103F70008081992787FD90950F94FE09F601808333
:103F8000B394E7CF4801F3E38F0E911C40E050E07B
:103F9000BA01C4010E949E95512C6E0183E9C80E9E
:103FA000D11C24E4622E22E0722EFE0131965F01C4
:103FB00040E050E0B601C4010E94E7941816E4F511
:103FC000412CF60101900020E9F73197EC19FD0929
:103FD0004E1674F41601240C311C47FC3A94F1017E
:103FE000808190E00F94FE09F10180834394E9CF32
:103FF000F60181858E37E1F245E050E0B701C60158
:104000000F94960A892BA1F6FF92EF927F926F92FE
:10401000BF92AF920F94B30AC5010E94C43280E4EC
:1040200092E00E948D330F900F900F900F900F90A1
:104030000F9055245394BCCF511004C08FEF9FEFC5
:10404000F80104C0F80185A596A5019696A785A755
:10405000C454DF4F0FB6F894DEBF0FBECDBFDF9163
:10406000CF911F910F91FF90EF90DF90CF90BF9075
:10407000AF909F908F907F906F905F904F903F9008
:104080002F9008950F931F93CF93DF93EC018C0132
:1040900002531E4FC8010E943796C8010E948196A4
:1040A00019821882DF91CF911F910F910895CF92BD
:1040B000DF92EF92FF920F931F93CF93DF93CDB7D1
:1040C000DEB76F970FB6F894DEBF0FBECDBF8C0181
:1040D0006A017C018EE4E80EF11CC801805B9F4FF1
:1040E000F70191838083E65CFD4F22E030E031836D
:1040F000208332967183608340E050E0BA010496D9
:104100000E949E95F701808191812BE1FC013496FC
:10411000DE01159601900D922A95E1F7FC0182814E
:1041200093819C838B838EE094E09A8389839601AC
:10413000AE014F5F5F4F65E274E0C80185D9CE01E3
:104140000196F9D86F960FB6F894DEBF0FBECDBFBB
:10415000DF91CF911F910F91FF90EF90DF90CF9063
:1041600008952F923F924F925F926F927F928F921B
:104170009F92AF92BF92CF92DF92EF92FF920F93F6
:104180001F93CF93DF93CDB7DEB7AC970FB6F894FC
:10419000DEBF0FBECDBF8C016B01342EFC018381CD
:1041A000882309F4CDC2EF52FE4F8081882309F4A1
:1041B000FAC0222319F0EEEEF0E1CDC07801F7E16C
:1041C000EF1AFEEFFF0AF7018081811103C0EEEEC6
:1041D000F0E135C0E4EFF0E18491882341F0909163
:1041E000C00095FFFCCF8093C6003196F5CFE3E980
:1041F000F3E08491882341F09091C00095FFFCCFBB
:104200008093C6003196F5CF4AE050E061E070E05F
:1042100086EB94E00E945E318091C00085FFFCCF68
:104220008AE08093C6008AE893E00E940C5388C21B
:104230009091C00095FFFCCF8093C6003196849189
:104240008111F6CFE1E7F3E08491882341F090916A
:10425000C00095FFFCCF8093C6003196F5CFF601E4
:104260008191882339F09091C00095FFFCCF809315
:10427000C600F6CFE6E6F3E08491882341F0909102
:10428000C00095FFFCCF8093C6003196F5CFF701B3
:1042900080814DE8B42EB801B89E600D711D1124C7
:1042A00062517E4FC801B9DBF7018081F801B89EE9
:1042B000E00DF11D1124E251FE4F8191882339F068
:1042C0009091C00095FFFCCF8093C600F6CFE0E64A
:1042D000F3E08491882341F09091C00095FFFCCFDA
:1042E0008093C6003196F5CF5801FDE7AF1AFDEF78
:1042F000BF0AF50140815181628173812AE030E07B
:1043000086EB94E00E948A318091C00085FFFCCF4B
:104310008AE08093C600F7012081F80184E0289F9D
:10432000E00DF11D1124AF0146515E4FF501808172
:104330009181A281B381FA0180839183A283B383A7
:104340002F5FF701208329C09091C00095FFFCCF1B
:104350008093C600319684918111F6CFEFE4F3E0AB
:104360008491882341F09091C00095FFFCCF809309
:10437000C6003196F5CFF6018191882339F09091EE
:10438000C00095FFFCCF8093C600F6CF8091C0009F
:1043900085FFFCCF8AE08093C600C80182539E4F00
:1043A0000E94819630C0F801E751FE4F1082EEEE78
:1043B000F0E18491882341F09091C00095FFFCCFFB
:1043C0008093C6003196F5CFEEE3F3E08491882325
:1043D00041F09091C00095FFFCCF8093C6003196CC
:1043E000F5CFF6018191882339F09091C00095FFB7
:1043F000FCCF8093C600F6CF8091C00085FFFCCF34
:104400008AE08093C600F8011282CE0101965C0119
:104410000E94911928019EE4490E511CC8018F96F3
:10442000F20191838083F60180818F3209F077C099
:104430007601FFEFEF1AFF0A3AE0232EE114F104B0
:1044400009F473C06FE270E0C7010F947B0A4C015E
:10445000009709F46BC0E816F90608F067C03C0144
:104460006E187F08A301B701CE0180960F94A40AAD
:10447000E0E2F0E0EC0FFD1FE60DF71D1082FE01FB
:10448000B0968191882339F09091C00095FFFCCFC0
:104490008093C600F6CF8091C00085FFFCCF2092AC
:1044A000C600F201608171816115710519F06C5FC0
:1044B0007F4F02C060E070E021E0AE01405E5F4FE0
:1044C000CE0105960E947898811121C0EAE2F3E0BE
:1044D0008491882341F09091C00095FFFCCF809398
:1044E000C6003196F5CFFE01B0968191882339F050
:1044F0009091C00095FFFCCF8093C600F6CF8091CD
:10450000C00085FFFCCF8EE28093C60016C1F20189
:10451000B182A0827401FFEFEF1AFF0A8FCFC801AA
:10452000805B9F4FF201918380837601C8018253A3
:104530009E4F4C01F20160817181332009F4A3C0C8
:104540006115710519F06C5F7F4F02C060E070E08B
:1045500021E0A701C4010E947898811103C0E2EF15
:10456000F2E075C0980125583D4FF4018189928988
:10457000A389B489F90180839183A283B383ECE199
:10458000F3E08491882341F09091C00095FFFCCF27
:104590008093C6003196F5CFF7018191882339F0D9
:1045A0009091C00095FFFCCF8093C600F6CFE4E168
:1045B000F3E08491882341F09091C00095FFFCCFF7
:1045C0008093C6003196F5CFF90140815181628117
:1045D00073812AE030E086EB94E00E948A3180917A
:1045E000C00085FFFCCF8AE08093C600F801ED573C
:1045F000FD4F1082118212821382E6E0F3E0849173
:10460000882341F09091C00095FFFCCF8093C600B5
:104610003196F5CF8091C00085FFFCCF8AE0809372
:10462000C600A70160E070E0C80141DDF8018289A1
:10463000882319F0C801429601C0C70160E07BC021
:104640009091C00095FFFCCF8093C6003196849175
:104650008111F6CFF7018191882339F09091C00044
:1046600095FFFCCF8093C600F6CFEFEEF2E0849189
:10467000882309F462C09091C00095FFFCCF80931D
:10468000C6003196F4CF6115710519F06C5F7F4F4C
:1046900002C060E070E026E5A701C4010E9478989E
:1046A000811125C0EBEDF2E08491882341F09091D7
:1046B000C00095FFFCCF8093C6003196F5CFF7017F
:1046C0008191882339F09091C00095FFFCCF8093B1
:1046D000C600F6CFE8EDF2E08491882371F1909165
:1046E000C00095FFFCCF8093C6003196F5CF81E0E6
:1046F000F8018083E6ECF2E08491882341F0909108
:10470000C00095FFFCCF8093C6003196F5CFF6012F
:104710008191882339F09091C00095FFFCCF809360
:10472000C600F6CF8091C00085FFFCCF8AE0809361
:10473000C60060E0C7010E94F3CBC5010E949B192F
:10474000AC960FB6F894DEBF0FBECDBFDF91CF9110
:104750001F910F91FF90EF90DF90CF90BF90AF909F
:104760009F908F907F906F905F904F903F902F9091
:10477000089521E0FC01218340E0F3CCCF92DF9249
:10478000EF92FF920F931F93CF93DF93CDB7DEB7D6
:104790006F970FB6F894DEBF0FBECDBF8C016C01D2
:1047A0002EE4C20ED11C805B9F4FF6019183808363
:1047B000E65CFD4F21E030E0318320837801F6E7AD
:1047C000EF1AFDEFFF0AF7011182108240E050E07E
:1047D000BA0104960E949E95F601808191812BE199
:1047E000FC013496DE01159601900D922A95E1F7B1
:1047F000FC01828193819C838B838EE094E09A8379
:10480000898320E030E0AE014F5F5F4F65E274E0E6
:10481000C8010E94241ACE0101960E949B19F7013B
:10482000808191816F960FB6F894DEBF0FBECDBF29
:10483000DF91CF911F910F91FF90EF90DF90CF907C
:104840000895AF92BF92CF92DF92EF92FF920F93B3
:104850001F93CF93DF93CDB7DEB76F970FB6F89462
:10486000DEBF0FBECDBF8C017B01CE0101960E9441
:104870009119F801E95AFF4F80816801811104C044
:104880002FE2C20ED11C03C080E5C80ED11C21E06E
:10489000A701B6016C5F7F4FCE0105960E94789804
:1048A00081112DC0EEEEF0E18491882341F09091CA
:1048B000C00095FFFCCF8093C6003196F5CFEAE2A9
:1048C000F2E08491882341F09091C00095FFFCCFE5
:1048D0008093C6003196F5CFF7018191882339F096
:1048E0009091C00095FFFCCF8093C600F6CF8091D9
:1048F000C00085FFFCCF8AE08093C60036C0F80177
:10490000EB55FE4F808191818A30910530F59C01F5
:104910002F5F3F4F318320832FE1289F7001299F14
:10492000F00C11242FE6E20EF11CE00EF11E5C01EA
:10493000B701C7014F960E94271C81E0A81AB10851
:104940002FE1E21AF1088FEFA816B80689F7B60131
:10495000C80181599F4F0E94271CBE016F5F7F4F86
:10496000C801805B9F4F0E94271CCE0101960E94C8
:104970009B196F960FB6F894DEBF0FBECDBFDF91C7
:10498000CF911F910F91FF90EF90DF90CF90BF904C
:10499000AF900895EF92FF920F931F93CF93DF9301
:1049A000EC01CB55DE4F2881398121153105F9F015
:1049B00021503109398328838C0101591F4FB801D7
:1049C000805B9F4F0E94271CC80100E010E07C0123
:1049D0002FE1E20EF11C288139810217130738F408
:1049E0000F5F1F4FB7010E94271CC701F0CFDF9157
:1049F000CF911F910F91FF90EF900895EF92FF924A
:104A00000F931F93CF93DF93EC010E9401A88E01B7
:104A100007511E4FF80180819E0122533E4F7901BC
:104A20008823A1F1C9010E948196F80180818150FB
:104A30008083BE01FDE88F9F600D711D11246251BE
:104A40007E4F21E041E0CE018CDBF8018081FE0148
:104A500024E0829FE00DF11D1124E651FE4F4081BC
:104A6000518162817381FE01ED57FD4F4083518377
:104A700062837383C7010E949E95CE01DF91CF911F
:104A80001F910F91FF90EF900C94011DC9010E949E
:104A900081961A828EE192E00E948D338091C60E3B
:104AA000882349F11092C60E0091600510E0E801DC
:104AB000CC0FDD1FCC5FDC4E68817981882777FDC4
:104AC0008095982F0F94C10320913B0230913C02B6
:104AD00040913D0250913E020F94220518165CF45D
:104AE00019821882C801DF91CF911F910F91FF9019
:104AF000EF900C942CAFDF91CF911F910F91FF900D
:104B0000EF900895AF92BF92DF92EF92FF920F93D2
:104B10001F93CF93DF931F92CDB7DEB78C015B015C
:104B2000460F8AE0D82E4A1509F43BC07501F501FD
:104B300061915F01F8018081918149830F94D70CC5
:104B4000F801808191810F94CF0CF7019081498108
:104B5000891701F1EEEEF0E18491882341F0909104
:104B6000C00095FFFCCF8093C6003196F5CFECEDE9
:104B7000F6E08491882341F09091C00095FFFCCF2E
:104B80008093C6003196F5CF8091C00085FFFCCFA1
:104B9000D092C600F8018081918101969183808333
:104BA000C2CF0F90DF91CF911F910F91FF90EF90A7
:104BB000DF90BF90AF900895EF92FF920F931F93F5
:104BC000CF93DF931F92CDB7DEB78C017B01460FE9
:104BD000F8018081918149830F94CF0CF701819373
:104BE0007F01F801808191810196918380834981C1
:104BF0004E11EECF0F90DF91CF911F910F91FF904B
:104C0000EF900895AF92BF92CF92DF92EF92FF9212
:104C10000F931F93CF93DF93CDB7DEB765970FB692
:104C2000F894DEBF0FBECDBF19861A861B861C8680
:104C300080E390E3A0E3B0E08D839E83AF83B887E9
:104C400084E690E09A8B898B44E0BE016B5F7F4FD6
:104C5000CE01419657DF40E167E07FE0CE0141960B
:104C600051DF40E167E17FE0CE0141964BDF40E15B
:104C700067EF7EE0CE01419645DF44E06FEE7EE0D7
:104C8000CE0141963FDF44E06BEE7EE0CE014196DF
:104C900039DF44E067EE7EE0CE01419633DF44E049
:104CA00063EF7EE0CE0141962DDF44E067ED7EE0CC
:104CB000CE01419627DF44E067E27FE0CE014196D6
:104CC00021DF44E063EE7EE0CE0141961BDF44E04D
:104CD0006FED7EE0CE01419615DF44E06BED7EE0A6
:104CE000CE0141960FDF4CE06DE675E0CE014196B6
:104CF00009DF83E08D8B8C8B1B8A41E0BE016D5EEA
:104D00007F4FCE014196FEDE41E0BE016B5E7F4FDC
:104D1000CE014196F7DE41E0BE016C5E7F4FCE01D1
:104D20004196F0DE19861A861B861C8610E09D8946
:104D30008C89212F30E0989FC001112444E028176E
:104D4000390744F4BE01675F7F4FCE014196DADE3A
:104D50001F5FEDCF6EE072E0CE014196D3DE198683
:104D60001A861B861C8607E010E00150110941F0ED
:104D700044E0BE01675F7F4FCE014196C3DEF5CFB1
:104D800042E066E975E1CE014196BCDE42E064E9AD
:104D900075E1CE014196B6DE42E062E975E1CE01F1
:104DA0004196B0DE42E060E975E1CE014196AADEAF
:104DB00042E06EE875E1CE014196A4DE42E06CE887
:104DC00075E1CE0141969EDE00E010E0C12C20E8A6
:104DD000D22E2BE3E22E25E4F22E01151105C9F4A3
:104DE00044E061E872E0CE0141968CDE44E06DE77C
:104DF00072E0CE01419686DE44E069E772E0CE01C2
:104E0000419680DE44E065E772E0CE0141967ADEAD
:104E10001EC0C986DA86EB86FC8644E0BE01675F69
:104E20007F4FCE0141966EDE19861A861B861C8640
:104E300094E0A92EB12C81E0A81AB10841F044E019
:104E4000BE01675F7F4FCE0141965CDEF4CF0F5FFE
:104E50001F4F0430110509F0C0CF42E06AE072E054
:104E6000CE0141964FDE44E06DE872E0CE014196FE
:104E700049DE44E069E872E0CE01419643DE44E059
:104E800065E872E0CE0141963DDE80E290E0988BCD
:104E90008F8742E0BE01615F7F4FCE01419632DED7
:104EA00080E090E0A0E8BFE389879A87AB87BC8762
:104EB00044E0BE01675F7F4FCE01419623DE41E0B3
:104EC00069E775E0CE0141961DDE00E010E00115B6
:104ED000110561F48091290290912A02A0912B0280
:104EE000B0912C0289879A87AB87BC8744E0BE01CA
:104EF000675F7F4FCE01419605DE0F5F1F4F043085
:104F0000110529F786E592E3A1E3B0E089839A834E
:104F1000AB83BC8384E690E09E878D8744E0BE012E
:104F20006F5F7F4FCE010D96EDDDEEEEF0E18491E7
:104F3000882341F09091C00095FFFCCF8093C6007C
:104F40003196F5CF49895A89662757FD6095762FA6
:104F50008AEC96E00E94B332E2ECF6E0849188237A
:104F600041F09091C00095FFFCCF8093C600319630
:104F7000F5CF8091C00085FFFCCF8AE08093C6000A
:104F800065960FB6F894DEBF0FBECDBFDF91CF910F
:104F90001F910F91FF90EF90DF90CF90BF90AF9057
:104FA0000895AF92BF92DF92EF92FF920F931F93FB
:104FB000CF93DF93CDB7DEB7E0970FB6F894DEBF9F
:104FC0000FBECDBF80E1E6EEF2E0DE0191960190EA
:104FD0000D928A95E1F780E1E6EFF2E0DE0151966D
:104FE00001900D928A95E1F780E1E6E0F3E0DE01C1
:104FF000119601900D928A95E1F77E0181E2E80E0B
:10500000F11C07E01FE0BE016F5E7F4F47E15FE0EC
:105010009E012F5F3F4FE7EFAE2EEEE0BE2ED12C6C
:10502000F70181919191A191B1917F01F801819353
:105030009193A193B1938F01FB0181919191A191E2
:10504000B191BF01FA0181939193A193B193AF0103
:10505000F90181919191A191B1919F01F501819304
:105060009193A193B1935F01D394F4E0DF12D8CF71
:105070000E944C7E80E090E8ABE3B4E48093EF0EB6
:105080009093F00EA093F10EB093F20E40E050E436
:105090006CE975E44093EB0E5093EC0E6093ED0ECB
:1050A0007093EE0E8093E70E9093E80EA093E90EB6
:1050B000B093EA0E1092F30E1092F40E1092F50EC9
:1050C0001092F60E80E29EE4A0E0B0E08093270FFD
:1050D0009093280FA093290FB0932A0F1092D70E08
:1050E0001092D80E1092D90E1092DA0E80E090E055
:1050F000A0E0B1E48093E30E9093E40EA093E50E5C
:10510000B093E60E8DEC9CECACECBEE38093DF0E2E
:105110009093E00EA093E10EB093E20E80E090E059
:10512000A0EAB0E48093DB0E9093DC0EA093DD0E3A
:10513000B093DE0E109275051092760510927705E9
:1051400010927805109271051092720510927305F5
:105150001092740510926D0510926E0510926F05F5
:105160001092700580E090E0A0E8BFEB80930E0203
:1051700090930F02A0931002B09311028CED90E077
:1051800090939715809396158CE390E090939515E6
:1051900080939415109293151092921580EF90E0E1
:1051A000909391158093901588E790E090938F15D8
:1051B00080938E1510928D1510928C158AE999E9BD
:1051C000A9EEB1E48093810290938202A0938302BE
:1051D000B093840269E27CE587E990E40E94F6B826
:1051E00060937D0270937E0280937F029093800291
:1051F0006CEE71E585E392E40E9402B96093790256
:1052000070937A0280937B0290937C0280E090E01E
:10521000A8ECB2E48093750290937602A093770293
:10522000B093780284E190E090930B0280930A029D
:105230000E9408AA80E090E0A8EAB3E480938D027F
:1052400090938E02A0938F02B093900260E070E082
:1052500084E792E40E94F6B86093890270938A0210
:1052600080938B0290938C0263E373E387EE93E465
:105270000E9402B960938502709386028093870230
:10528000909388021092790580E090E0A0E4B0E469
:105290008093290290932A02A0932B02B0932C02B0
:1052A0000E94AC65EEEEF0E18491882341F090918C
:1052B000C00095FFFCCF8093C6003196F5CFEBE799
:1052C000F6E08491882341F09091C00095FFFCCFD7
:1052D0008093C6003196F5CF8091C00085FFFCCF4A
:1052E0008AE08093C600E0960FB6F894DEBF0FBE4A
:1052F000CDBFDF91CF911F910F91FF90EF90DF9085
:10530000BF90AF900895CF93C82F882389F1409123
:10531000070F5091080F6091090F70910A0F83E6F3
:1053200096E00E94913240910B0F50910C0F6091CA
:105330000D0F70910E0F80E696E00E949132409121
:105340000F0F5091100F6091110F7091120F8DE59A
:1053500096E00E9491324091130F5091140F60918A
:10536000150F7091160F8AE596E00E9491322FC0BA
:10537000EEEEF0E18491882341F09091C00095FF1A
:10538000FCCF8093C6003196F5CFEBE6F6E0849132
:10539000882341F09091C00095FFFCCF8093C60018
:1053A0003196F5CF8091C00085FFFCCF8AE08093D5
:1053B000C600EEEEF0E18491882309F4A8CF909125
:1053C000C00095FFFCCF8093C6003196F4CF80914A
:1053D000C00085FFFCCF8AE08093C600CC2389F112
:1053E0004091170F5091180F6091190F70911A0F7B
:1053F00087E396E00E94913240911B0F50911C0F61
:1054000060911D0F70911E0F84E396E00E9491320F
:1054100040911F0F5091200F6091210F7091220F2A
:1054200081E396E00E9491324091230F5091240F26
:105430006091250F7091260F8EE296E00E949132C6
:105440002FC0EEEEF0E18491882341F09091C000EE
:1054500095FFFCCF8093C6003196F5CFE0E4F6E0EF
:105460008491882341F09091C00095FFFCCF8093F8
:10547000C6003196F5CF8091C00085FFFCCF8AE051
:105480008093C600EEEEF0E18491882309F4A8CF62
:105490009091C00095FFFCCF8093C6003196F4CF69
:1054A0008091C00085FFFCCF8AE08093C600CC23AA
:1054B00089F14091F70E5091F80E6091F90E7091BC
:1054C000FA0E87E096E00E94B3324091FB0E5091B5
:1054D000FC0E6091FD0E7091FE0E84E096E00E943D
:1054E000B3324091FF0E5091000F6091010F709107
:1054F000020F81E096E00E94B3324091030F509179
:10550000040F6091050F7091060F8EEF95E00E94D9
:10551000B3322FC0EEEEF0E18491882341F09091F8
:10552000C00095FFFCCF8093C6003196F5CFE0E137
:10553000F6E08491882341F09091C00095FFFCCF64
:105540008093C6003196F5CF8091C00085FFFCCFD7
:105550008AE08093C600EEEEF0E18491882309F49E
:10556000A8CF9091C00095FFFCCF8093C6003196E4
:10557000F4CF8091C00085FFFCCF8AE08093C60005
:10558000CC2311F14091EF0E5091F00E6091F10E8D
:105590007091F20E83EC95E0C4D74091EB0E5091E0
:1055A000EC0E6091ED0E7091EE0E80EC95E0B9D7A7
:1055B0004091E70E5091E80E6091E90E7091EA0E6D
:1055C0008DEB95E0AED72FC0EEEEF0E1849188230D
:1055D00041F09091C00095FFFCCF8093C6003196BA
:1055E000F5CFECECF5E08491882341F09091C00078
:1055F00095FFFCCF8093C6003196F5CF8091C00017
:1056000085FFFCCF8AE08093C600EEEEF0E1849146
:10561000882309F4B7CF9091C00095FFFCCF809309
:10562000C6003196F4CF8091C00085FFFCCF8AE0A0
:105630008093C600CC2309F443C04091F30E5091EF
:10564000F40E6091F50E7091F60E81E095E069D749
:105650004091D70E5091D80E6091D90E7091DA0E0C
:105660008EEF94E05ED74091270F5091280F609104
:10567000290F70912A0F8BEF94E075D74091E30EBC
:105680005091E40E6091E50E7091E60E88EF94E083
:1056900048D74091DF0E5091E00E6091E10E70917D
:1056A000E20E85EF94E03DD74091DB0E5091DC0E89
:1056B0006091DD0E7091DE0E82EF94E032D72FC044
:1056C000EEEEF0E18491882341F09091C00095FFC7
:1056D000FCCF8093C6003196F5CFEAE0F5E08491E7
:1056E000882341F09091C00095FFFCCF8093C600C5
:1056F0003196F5CF8091C00085FFFCCF8AE0809382
:10570000C600EEEEF0E18491882309F496CF9091E3
:10571000C00095FFFCCF8093C6003196F4CF8091F6
:10572000C00085FFFCCF8AE08093C600CC2311F136
:1057300040916D0550916E0560916F0570917005F7
:1057400087ED94E0EED6409171055091720560911D
:1057500073057091740584ED94E0E3D6409175056E
:1057600050917605609177057091780581ED94E010
:10577000D8D62FC0EEEEF0E18491882341F09091CD
:10578000C00095FFFCCF8093C6003196F5CFE0EEC8
:10579000F4E08491882341F09091C00095FFFCCF04
:1057A0008093C6003196F5CF8091C00085FFFCCF75
:1057B0008AE08093C600EEEEF0E18491882309F43C
:1057C000B7CF9091C00095FFFCCF8093C600319673
:1057D000F4CF8091C00085FFFCCF8AE08093C600A3
:1057E000CC2311F14091961550919715662757FDDE
:1057F0006095762F89EA94E0B6D640919415509141
:105800009515662757FD6095762F86EA94E0ABD60E
:105810004091921550919315662757FD6095762F0C
:1058200083EA94E0A0D62FC0EEEEF0E184918823C5
:1058300041F09091C00095FFFCCF8093C600319657
:10584000F5CFE5EBF4E08491882341F09091C0001E
:1058500095FFFCCF8093C6003196F5CF8091C000B4
:1058600085FFFCCF8AE08093C600EEEEF0E18491E4
:10587000882309F4B7CF9091C00095FFFCCF8093A7
:10588000C6003196F4CF8091C00085FFFCCF8AE03E
:105890008093C600CC2311F1409190155091911541
:1058A000662757FD6095762F87E994E05CD6409196
:1058B0008E1550918F15662757FD6095762F84E9D8
:1058C00094E051D640918C1550918D15662757FD67
:1058D0006095762F81E994E046D60DC0EEEEF0E1BA
:1058E00084918823C9F29091C00095FFFCCF8093EA
:1058F000C6003196F5CF8091C00085FFFCCF8AE0CD
:105900008093C600CC2309F43CC0409181025091A1
:10591000820260918302709184028AE794E001D64A
:1059200060917D0270917E0280917F029091800251
:105930000E94FCB8AB01BC0187E794E0F2D560910E
:10594000790270917A0280917B0290917C020E9490
:1059500008B9AB01BC0184E794E0E3D5409175023E
:1059600050917602609177027091780281E794E01D
:10597000D8D560910A0270910B028EE694E0C0D5F2
:105980002FC0EEEEF0E18491882341F09091C000A9
:1059900095FFFCCF8093C6003196F5CFE3E8F4E0A5
:1059A0008491882341F09091C00095FFFCCF8093B3
:1059B000C6003196F5CF8091C00085FFFCCF8AE00C
:1059C0008093C600EEEEF0E18491882309F49DCF28
:1059D0009091C00095FFFCCF8093C6003196F4CF24
:1059E0008091C00085FFFCCF8AE08093C600CC2365
:1059F00051F140918D0250918E0260918F02709111
:105A0000900285E694E08DD56091890270918A02BA
:105A100080918B0290918C020E94FCB8AB01BC017A
:105A200082E694E07ED56091850270918602809135
:105A30008702909188020E9408B9AB01BC018FE5F2
:105A400094E06FD50DC0EEEEF0E18491882389F2E9
:105A50009091C00095FFFCCF8093C6003196F5CFA2
:105A60008091C00085FFFCCF8AE08093C600CC23E4
:105A700061F04091290250912A0260912B027091AD
:105A80002C0289E394E04DD545C0EEEEF0E184911F
:105A9000882341F09091C00095FFFCCF8093C60011
:105AA0003196F5CFECE4F4E08491882341F09091B5
:105AB000C00095FFFCCF8093C6003196F5CF809152
:105AC0007905811103C0E2E4F4E00CC08091C000CC
:105AD00085FFFCCF0EC09091C00095FFFCCF809356
