:100000000C9465180C9496180C9496180C949618E9
:100010000C9496180C9496180C9496180C949618A8
:100020000C9496180C9496180C9496180C94961898
:100030000C9496180C9496180C9496180C94961888
:100040000C9496180C948A830C9496180C94961819
:100050000C9496180C9496180C9434990C94AEE267
:100060000C9496180C94D82F0C9496180C949618FF
:100070000C9496180C9496180C9496180C94961848
:100080000C9496180C9496180C9496180C94961838
:100090000C9496180C9496180C9496180C94A0DB5B
:1000A0000C9496180C9496180C9496180C94961818
:1000B0000C9496180C9496180C9496180C94961808
:1000C0000C9496180C9496180C9496180C949618F8
:1000D0000C9496180C9496180C9496180C949618E8
:1000E0000C949618C099D099EF99FF991A9A2A9A68
:1000F000459A4A9A4D9A529A559A5A9A649AD1E3D5
:10010000D6E3DBE3E5E3EFE368E4F9E301E409E4E4
:1001100013E41DE427E436E440E468E44AE454E4EC
:100120005EE489E48CE47BE47FE485E4C3E490E46A
:1001300094E49AE49EE4A2E4A8E4ACE4B0E4C3E46A
:10014000B6E4BAE4BEE4084AD73B3BCE016E84BCB9
:10015000BFFDC12F3D6C74319ABD56833DDA3D0021
:10016000C77F11BED9E4BB4C3E916BAAAABE00006A
:1001700000803F05A84CCDB2D44EB93836A9020C48
:1001800050B9918688083CA6AAAA2ABE0000008021
:100190003F004D383420582059205A2045004361F3
:1001A0006E6E6F7420656E7465722073756264691B
:1001B000723A20004D3234004D32332025730061F5
:1001C00075746F25692E67006572726F7220777281
:1001D0006974696E6720746F2066696C65004E6F84
:1001E00074205344207072696E74696E67005344C2
:1001F000207072696E74696E672062797465200080
:1002000044656C6574696F6E206661696C65642C09
:100210002046696C653A200046696C652064656C0F
:10022000657465643A006F70656E206661696C651F
:10023000642C2046696C653A200057726974696EB7
:100240006720746F2066696C653A20002E0A006F83
:1002500070656E206661696C65642C2046696C650A
:100260003A20002E0A006F70656E206661696C6529
:10027000642C2046696C653A200046696C652073E1
:10028000656C6563746564002053697A653A200083
:1002900046696C65206F70656E65643A20006F700A
:1002A000656E206661696C65642C2046696C653AF0
:1002B00020004E6F772066726573682066696C65F2
:1002C0003A20004E6F7720646F696E672066696C14
:1002D000653A20002220706F7300222070617265E1
:1002E0006E743A2200535542524F5554494E4520A0
:1002F00043414C4C207461726765743A22004B494B
:100300004C4C45442E2000747279696E6720746FDE
:100310002063616C6C207375622D67636F64652068
:1003200066696C6573207769746820746F6F206DDF
:10033000616E79206C6576656C732E204D41582076
:100340006C6576656C2069733A0053442063617272
:1003500064206F6B006F70656E526F6F7420666102
:10036000696C656400766F6C756D652E696E697475
:10037000206661696C656400534420696E6974206D
:100380006661696C0020204D3230302044300020FE
:10039000204D32303020543120440020204D323066
:1003A000302044002044697361626C6564004669D2
:1003B0006C616D656E742073657474696E67733AF1
:1003C00000204C0020430020440020490020204D04
:1003D000333031205000204C0020430020440020C6
:1003E000490020500020204D333031204500504935
:1003F000442073657474696E67733A002046002068
:10040000420020204D313435204D31204800204617
:100410000020420020204D313435204D302048004E
:100420004D6174657269616C2068656174757020D6
:10043000706172616D65746572733A00205A0020B4
:10044000590020204D3432312058002059002058C6
:100450000020204D3432302053004D6573682062F7
:100460006564206C6576656C696E673A00205A0099
:1004700020590020204D323036205800486F6D65DD
:10048000206F666673657420286D6D293A002045DB
:1004900000205A0020580020420020540020204D07
:1004A000323035205300416476616E636564207696
:1004B00061726961626C65733A20533D4D696E20CB
:1004C000666565647261746520286D6D2F73292CD3
:1004D00020543D4D696E2074726176656C206665AE
:1004E00065647261746520286D6D2F73292C20421C
:1004F0003D6D696E696D756D207365676D656E74B0
:100500002074696D6520286D73292C20583D6D611C
:1005100078696D756D205859206A65726B20286D59
:100520006D2F73292C20205A3D6D6178696D756D92
:10053000205A206A65726B20286D6D2F73292C203C
:1005400020453D6D6178696D756D2045206A657245
:100550006B20286D6D2F732900205400205200203D
:10056000204D323034205000416363656C65726108
:1005700074696F6E733A20503D7072696E74696E63
:10058000672C20523D7265747261637420616E64E1
:1005900020543D74726176656C00204500205A003D
:1005A00020590020204D3230312058004D617869AB
:1005B0006D756D20416363656C65726174696F6E02
:1005C00020286D6D2F7332293A00204500205A00F3
:1005D00020590020204D3230332058004D61786979
:1005E0006D756D2066656564726174657320286D34
:1005F0006D2F73293A00204500205A002059002011
:10060000204D393220580053746570732070657224
:1006100020756E69743A0048617264636F64656442
:100620002044656661756C742053657474696E67E7
:1006300073204C6F6164656400206279746573296E
:10064000002073746F7265642073657474696E67DB
:100650007320726574726965766564202800206273
:1006600079746573290053657474696E67732053D8
:10067000746F7265642028004572726F7220777201
:100680006974696E6720746F20454550524F4D2143
:100690000020496E76616C696420657874727564B7
:1006A000657220005072696E7465722068616C74A6
:1006B00065642E206B696C6C28292063616C6C6505
:1006C0006421004B494C4C45442E20004B494C4C76
:1006D00045442E200020746F6F206C6F6E6720657C
:1006E0007874727573696F6E2070726576656E745A
:1006F00065640020636F6C6420657874727573693B
:100700006F6E2070726576656E746564006F6B0045
:10071000526573656E643A20004D33303020533695
:10072000353920503230300A4D333030205336398D
:10073000382050323030004F666673657420617027
:10074000706C6965642E004D333030205334302096
:1007500050323030004572723A20546F6F2066611B
:10076000722100546F6F206661722066726F6D2077
:100770007265666572656E636520706F696E740080
:100780004D65736820585920696E646578206973D7
:10079000206F7574206F6620626F756E6473004DF4
:1007A0003432312072657175697265732058595AF7
:1007B00020706172616D657465727300486F746555
:1007C0006E64206F6666736574733A005365747463
:1007D000696E672054726176656C20416363656C55
:1007E00065726174696F6E3A200053657474696E46
:1007F00067205265747261637420416363656C6540
:10080000726174696F6E3A200053657474696E6723
:10081000205072696E7420416363656C6572617407
:10082000696F6E3A200053657474696E6720507268
:10083000696E7420616E642054726176656C20412B
:100840006363656C65726174696F6E3A20004D3147
:10085000343520533C696E6465783E206F75742092
:100860006F662072616E67652028302D3129007A0D
:100870005F6D696E3A2000795F6D696E3A2000788D
:100880005F6D696E3A2000205A3A0020593A0020E4
:10089000436F756E7420583A200020453A00205A64
:1008A0003A0020593A00583A004649524D574152B1
:1008B000455F4E414D453A4D61726C696E20312E57
:1008C000312E302D524333204D6F64696669656463
:1008D00020666F7220426967426F78204475616CB0
:1008E00020534F555243455F434F44455F55524C4B
:1008F0003A687474703A2F2F77696B692E65336488
:100900002D6F6E6C696E652E636F6D2F77696B69E5
:100910002F426967426F782F2050524F544F434FF8
:100920004C5F56455253494F4E3A312E30204D417F
:100930004348494E455F545950453A426967426FB2
:1009400078204475616C2045585452554445525F97
:10095000434F554E543A3220555549443A30303081
:1009600030303030302D303030302D303030302D90
:10097000303030302D30303030303030303030307A
:10098000300A00426967426F78204475616C204FDD
:1009900066662E00426967426F78204475616C205C
:1009A00072656164792E0042656420646F6E652E05
:1009B0000020423A0020453A00543A004265642043
:1009C00048656174696E672E0048656174696E6779
:1009D00020646F6E652E003F0020573A0020453A94
:1009E00000543A0048656174696E672E2E2E00200F
:1009F00042403A0020403A00202F00205400202F8F
:100A00000020423A00202F0020543A006F6B004B28
:100A1000494C4C45442E2000444542554720445201
:100A20005952554E20454E41424C454400444542A2
:100A30005547204543484F20454E41424C454400D0
:100A40002569206D696E2C2025692073656300453A
:100A50006E642066696C65206C697374004265671A
:100A6000696E2066696C65206C697374004E6F2036
:100A70006D6F76652E00426967426F78204475611C
:100A80006C2072656164792E00526573756D696EB4
:100A900067207072696E74005761697420666F72A6
:100AA00020757365722E2E2E005A206E6F7420658D
:100AB0006E74657265642E0A0059206E6F7420652D
:100AC0006E74657265642E0A0059206F7574206F0C
:100AD000662072616E67652028312D33292E0A0049
:100AE00058206E6F7420656E74657265642E0A00FE
:100AF00058206F7574206F662072616E67652028BC
:100B0000312D33292E0A00473238004D6573682095
:100B100070726F62696E6720646F6E652E00537429
:100B2000617274206D6573682070726F62696E67A0
:100B30002077697468202247323920533122206699
:100B4000697273742E004732380A473239205332A3
:100B5000004D65736820626564206C6576656C691C
:100B60006E67206E6F74206163746976652E002055
:100B700020000A4D6561737572656420706F696E3F
:100B800074733A000A5A207365617263682068655D
:100B9000696768743A20004E756D20582C593A20C8
:100BA0000053206F7574206F662072616E67652038
:100BB00028302D33292E005761726E696E673A20F6
:100BC000486F6D696E672042756D70204469766963
:100BD000736F72203C203100536C6565702E2E2E91
:100BE00000220A00556E6B6E6F776E20636F6D6D1D
:100BF000616E643A202200256920686F7572732047
:100C00002569206D696E7574657300446F6E65208B
:100C10007072696E74696E672066696C65004B4915
:100C20004C4C45442E200053544F505045442E20E8
:100C3000005072696E7465722073746F70706564B1
:100C40002064756520746F206572726F72732E2038
:100C500046697820746865206572726F7220616ED3
:100C60006420757365204D39393920746F207265A1
:100C700073746172742E202854656D70657261748E
:100C80007572652069732072657365742E205365D3
:100C90007420697420616674657220726573746172
:100CA0007274696E6729004E6F204C696E65204E24
:100CB000756D626572207769746820636865636B1F
:100CC00073756D2C204C617374204C696E653A20ED
:100CD000004E6F20436865636B73756D2077697490
:100CE00068206C696E65206E756D6265722C204C93
:100CF000617374204C696E653A2000636865636BAC
:100D000073756D206D69736D617463682C204C611F
:100D10007374204C696E653A20004C696E65204EF4
:100D2000756D626572206973206E6F74204C6173FB
:100D300074204C696E65204E756D6265722B312C86
:100D4000204C617374204C696E653A20004D31313E
:100D500030006F6B00446F6E6520736176696E675B
:100D60002066696C652E004D3239002020506C6180
:100D70006E6E657242756666657242797465733A25
:100D800020002046726565204D656D6F72793A20AE
:100D900000446563203136203230313500436F6DB9
:100DA00070696C65643A2000286E6F6E652C206453
:100DB000656661756C7420636F6E666967290020D3
:100DC0007C20417574686F723A2000323031352DC5
:100DD00031322D31352030303A303000204C6173C3
:100DE0007420557064617465643A200020312E319E
:100DF0002E302D524333202842424475616C290025
:100E00004D61726C696E0020536F66747761726514
:100E100020526573657400205761746368646F675E
:100E2000205265736574002042726F776E206F7573
:100E300074205265736574002045787465726E6124
:100E40006C20526573657400506F77657255700041
:100E50007374617274002200656E717565756569E1
:100E60006E67202200FFFFFF0000A0400000A040AE
:100E700000000040000082430000704300008C43EB
:100E8000000000000000000000000000000082439D
:100E90000000704300008C430000000000000000D0
:100EA000000000006563686F3A004572726F723A25
:100EB0000020746F6F206C6F6E6720657874727598
:100EC00073696F6E2070726576656E74656400205C
:100ED000636F6C6420657874727573696F6E2070CF
:100EE000726576656E746564007C3C3E5E2B3D3FAA
:100EF0002F5B5D3B2C2A225C004D38342058205952
:100F0000205A204500656E6473746F7073206869A1
:100F1000743A205A00205A3A00656E6473746F70F8
:100F200073206869743A20590020593A00656E644C
:100F300073746F7073206869743A20580020583AAF
:100F400000656E6473746F7073206869743A200072
:100F500024F4D43050C38E20C2A24017828B70116B
:100F6000127A910D816CD90AA861E108C758660709
:100F7000615143061E4B5D05C145A7041A4111048A
:100F8000093D9803713931034036DB026533910224
:100F9000D4305402802E1D02632CEE01752AC50147
:100FA000B028A001102781018F2564012B244B015B
:100FB000E0223401AC211F018D200D01801FFC00B7
:100FC000841EED00971DDF00B81CD200E61BC60092
:100FD000201BBC00641AB200B219A8000A19A000B4
:100FE0006A189900D117910040178B00B51684003C
:100FF00031167E00B31579003A157300C7146F00DF
:1010000058146A00EE1366008813630025135E000F
:10101000C7125B006C12570015125400C111510029
:1010200070114F0021114B00D61049008D10470060
:101030004610440002104200C00F4000800F3E00E6
:10104000420F3C00060F3B00CB0E3800930E3700DA
:101050005C0E3500270E3400F30D3200C10D310057
:10106000900D3000600D2E00320D2D00050D2C006E
:10107000D90C2B00AE0C2900850C29005C0C270034
:10108000350C27000E0C2600E80B2400C40B2400AE
:10109000A00B23007D0B23005A0B2100390B2100EC
:1010A000180B2000F80A1F00D90A1E00BB0A1E00F8
:1010B0009D0A1D00800A1D00630A1C00470A1B00D0
:1010C0002C0A1B00110A1A00F7091A00DD09190081
:1010D000C4091900AB091900920917007B0918000F
:1010E000630917004C09160036091600200916007E
:1010F0000A091500F5081500E0081400CC081400D2
:10110000B8081400A4081400900813007D08120009
:101110006B0813005808120046081200340811002A
:10112000230811001208110001081100F007100037
:10113000E0071000D0071000C0071000B0070F0034
:10114000A107100091070E0083070F0074070F001E
:1011500065070E0057070E0049070E003B070D00FC
:101160002E070E0020070D0013070D0006070D00C7
:10117000F9060C00ED060D00E0060C00D4060C008C
:10118000C8060C00BC060C00B0060C00A4060B0040
:1011900099060C008D060B0082060B0077060B00EB
:1011A0006C060B0061060A0057060B004C060A008D
:1011B00042060A0038060A002E060A0024060A0023
:1011C0001A060A001006090007060A00FD050900B4
:1011D000F4050900EB050900E2050900D90509003D
:1011E000D0050900C7050900BE050900B5050800BE
:1011F000AD050800A50509009C0508009405080038
:101200008C050800840508007C05080074050800AA
:101210006C050700650508005D0507005605080018
:101220004E05070047050700400508003805070080
:10123000310507002A050700230507001C050600E5
:10124000160507000F050700080506000205070040
:10125000FB040600F5040700EE040600E80406009F
:10126000E2040700DB040600D5040600CF040600F4
:10127000C9040600C3040600BD040600B704060046
:10128000B1040500AC040600A6040600A004050095
:101290009B04060095040500900406008A040500DE
:1012A00085040500800406007A0405007504050025
:1012B000700405006B040500660405006104050068
:1012C0005C04050057040500520405004D040500A8
:1012D00048040500430405003E0404003A040500E8
:1012E00035040500300404002C0405002704040024
:1012F000230405001E0404001A040400160405005B
:10130000110404000D040400090405000404040091
:1013100000040400FC030400F8030400F4030400C8
:10132000F0030400EC030400E8030400E4030400F9
:10133000E0030400DC030400D8030400D403040029
:10134000D0030400CC030400C8030300C50303005A
:1013500024F404D9201BC40C5C0E9804C4095F0259
:1013600065077101F405F900FB04B3004804870028
:10137000C10369005803550003034500BE023A004B
:101380008402310053022A002902250004022000B1
:10139000E4011C00C8011900AF01170098011400F6
:1013A00084011300710110006101100051010E0051
:1013B00043010D0036010B002B010B0020010B0037
:1013C000150109000C01090003010800FB000800D9
:1013D000F3000800EB000700E4000600DE00060052
:1013E000D8000600D2000600CC000500C7000500AA
:1013F000C2000500BD000400B9000400B5000400EF
:10140000B1000400AD000400A9000400A500030021
:10141000A20003009F0004009B000300980003004B
:101420009500020093000300900003008D0002006D
:101430008B00030088000200860002008400030085
:10144000810002007F0002007D0002007B0002009C
:1014500079000200770001007600020074000200AB
:1014600072000100710002006F0002006D000100B7
:101470006C0002006A0001006900020067000100C0
:1014800066000100650001006400020062000100C6
:1014900061000100600001005F0002005D000100CA
:1014A0005C0001005B0001005A00010059000100CE
:1014B00058000100570001005600010055000100CE
:1014C00054000100530000005300010052000100CD
:1014D00051000100500001004F0001004E000000CB
:1014E0004E0001004D0001004C0001004B000000C7
:1014F0004B0001004A0001004900010048000000C3
:1015000048000100470001004600000046000100BD
:1015100045000000450001004400010043000000B8
:1015200043000100420000004200010041000000B1
:1015300041000100400001003F0000003F000100A9
:101540003E0000003E0001003D0000003D000100A3
:101550003C0000003C0000003C0001003B0000009B
:101560003B0001003A0000003A0001003900000091
:101570003900010038000000380000003800010088
:101580003700000037000100360000003600000080
:101590003600010035000000350000003500010074
:1015A000340000003400000034000100330000006B
:1015B0003300000033000100320000003200000060
:1015C0003200010031000000310000003100010054
:1015D0003000000030000000300001002F0000004B
:1015E0002F0000002F0000002F0001002E0000003F
:1015F0002E0000002E0001002D0000002D00000034
:101600002D0000002D0001002C0000002C00000027
:101610002C0000002C0001002B0000002B0000001B
:101620002B0000002B0001002A0000002A0000000F
:101630002A0000002A000100290000002900000003
:1016400029000000290000002900010028000000F6
:1016500028000000280000002800000028000100E9
:1016600027000000270000002700000027000000DE
:1016700027000100260000002600000026000000D0
:1016800026000000260001002500000025000000C3
:1016900025000000250000002500000025000100B5
:1016A00024000000240000002400000024000000AA
:1016B000240001002300000023000000230000009C
:1016C000230000002300000023000000230001008D
:1016D0002200000022000000220000002200000082
:1016E0002200000022000100210000002100000073
:1016F0002100000021000000210000002100000066
:101700002100010020000000200000002000000057
:101710002000000020000000200000002000000049
:10172000200001001F0000001F0000001F0000003B
:101730001F0000001F0000001F0000001F0001002C
:101740001E0000001E0000001E0000001E00000021
:101750004D494E54454D50207472696767657265F6
:1017600064004572723A204D494E54454D50204216
:101770004544004D415854454D5020747269676787
:1017800065726564004572723A204D415854454D6A
:10179000502042454400546865726D616C2052755A
:1017A0006E6177617900544845524D414C20525545
:1017B0004E415741590048656174696E6720666102
:1017C000696C65640048656174696E67206661696B
:1017D0006C6564004D494E54454D502074726967E4
:1017E0006765726564004572723A204D494E5445F2
:1017F0004D5000626564002C2073797374656D2010
:1018000073746F7070656421204865617465725FE0
:1018100049443A20004D415854454D502074726956
:10182000676765726564004572723A204D4158548D
:10183000454D50004B64200023646566696E652049
:101840002044454641554C545F004B6920002364B9
:101850006566696E65202044454641554C545F00DD
:101860004B70200023646566696E65202044454600
:1018700041554C545F00504944204175746F747554
:101880006E652066696E69736865642120507574A1
:1018900020746865206C617374204B702C204B6938
:1018A00020616E64204B6420636F6E7374616E748C
:1018B000732066726F6D2062656C6F7720696E743D
:1018C0006F20436F6E66696775726174696F6E2E03
:1018D0006800504944204175746F74756E652066C8
:1018E00061696C6564212074696D656F7574002091
:1018F000403A00543A00423A00504944204175743D
:101900006F74756E65206661696C6564212054652D
:101910006D706572617475726520746F6F2068698F
:10192000676800204B643A2000204B693A20002071
:101930004B703A200020436C6173736963205049F7
:101940004420002054753A2000204B753A20002096
:101950006D61783A2000206D696E3A200020643A6B
:10196000200020626961733A200000000000300E00
:101970000100C00E0A00500F1400D00F1E006010AE
:101980002800E010320070113C00F0114600701287
:10199000500000135A008013640000146E0090146D
:1019A00078001015820090158C0010169600901685
:1019B000A0001017AA009017B4001018BE009018CD
:1019C000C8001019D2009019DC00101AE600801A25
:1019D000F000001BFA00801B0401F01B0E01701CBC
:1019E0001801F01C2201601D2C01E01D3601501E63
:1019F0004001D01E4A01401F5401B01F5E0130203B
:101A00006801A020720110217C0190218601002232
:101A100090016026F401902A5802802EBC025032B8
:101A20002003E03584035039E803803C4C04100067
:101A3000C90210012C014001220170011801B001FE
:101A40000E01F00104015002FA00B002F000300370
:101A5000E600D003DC009004D2007005C800A006A8
:101A6000BE000008B400B009AA00D00BA000600EB0
:101A7000960060118C000015820020197800C01DAE
:101A80006E00A0226400B0275A00902C5000003154
:101A90004600E0343C0010383200903A2800603CA8
:101AA0001E00A03D1400803E0A00203F000043615C
:101AB00072642072656D6F766564004361726420A4
:101AC000696E736572746564004D343238000920A4
:101AD000000920002D2D2D2E2D2D002D2D2D002D1A
:101AE0002D2D002D2D2D002D2D3A2D2D00466C6F06
:101AF00077203200466C6F77203200466C6F77207B
:101B00003100466C6F77203100466C6F7700466C71
:101B10006F77005370656564005370656564004DB0
:101B200061696E00473238005A0058595A004732EE
:101B300038004D6F76652058004D6F76652059004E
:101B40004D6F7665205A00457874727564657232FF
:101B500000457874727564657231004578747275E9
:101B60006465723200457874727564657231004D37
:101B70006F7665205A004D6F76652059004D6F765F
:101B8000652058004D6F76652061786973004D6F50
:101B9000766520302E316D6D004D6F766520316D8C
:101BA0006D004D6F76652031306D6D00507265703F
:101BB000617265005072656865617420504C412007
:101BC000426564005072656865617420504C412024
:101BD000416C6C005072656865617420504C412006
:101BE00032005072656865617420504C41203100AC
:101BF000507265706172650050726568656174202D
:101C000041425320426564005072656865617420EA
:101C100041425320416C6C005072656865617420CC
:101C20004142532032005072656865617420414220
:101C30005320310050726570617265004D3830007C
:101C400053776974636820706F776572206F6E00D8
:101C50004D38310053776974636820706F7765720F
:101C6000206F666600436F6F6C646F776E00507212
:101C70006568656174204142530050726568656112
:101C80007420504C41004D38340044697361626CDB
:101C900065207374657070657273004D6F76652092
:101CA00061786973004C6576656C206265640053E9
:101CB000657420686F6D65206F6666736574730068
:101CC000473238004175746F20686F6D65004D6153
:101CD000696E0046616E2073706565640046616ED2
:101CE0002073706565640042656400426564004E5F
:101CF0006F7A7A6C652032004E6F7A7A6C6520328A
:101D0000004E6F7A7A6C652031004E6F7A7A6C657E
:101D100020310053746F7265206D656D6F727900AC
:101D200042656400426564004E6F7A7A6C65004ECD
:101D30006F7A7A6C650046616E2073706565640029
:101D400046616E2073706565640054656D706572E0
:101D500061747572650053746F7265206D656D6F87
:101D600072790042656400426564004E6F7A7A6C55
:101D700065004E6F7A7A6C650046616E20737065FF
:101D800065640046616E2073706565640054656D1E
:101D90007065726174757265005072656865617412
:101DA0002041425320636F6E660050726568656122
:101DB0007420504C4120636F6E66005049442D439F
:101DC000005049442D43005049442D44005049449B
:101DD0002D44005049442D49005049442D4900509C
:101DE00049442D50005049442D50002008204661A0
:101DF00063740020082046616374002008204D6150
:101E000078002008204D6178002008204D696E0080
:101E10002008204D696E004175746F74656D700007
:101E20004F6666004F6E2000436F6E74726F6C00D9
:101E30004573746570732F6D6D00457374657073B1
:101E40002F6D6D005A73746570732F6D6D005A732A
:101E5000746570732F6D6D005973746570732F6D99
:101E60006D005973746570732F6D6D0058737465D0
:101E700070732F6D6D005873746570732F6D6D00E6
:101E8000412D74726176656C00412D7472617665C6
:101E90006C00412D7265747261637400412D72652E
:101EA000747261637400416D6178206500416D61F9
:101EB00078206500416D6178207A00416D6178205D
:101EC0007A00416D6178207900416D617820790058
:101ED000416D6178207800416D617820780056541A
:101EE000726176206D696E005654726176206D695C
:101EF0006E00566D696E00566D696E00566D6178A4
:101F0000206500566D6178206500566D6178207AF5
:101F100000566D6178207A00566D61782079005600
:101F20006D6178207900566D6178207800566D617A
:101F30007820780056652D6A65726B0056652D6AAB
:101F400065726B00567A2D6A65726B00567A2D6A3F
:101F500065726B005678792D6A65726B00567879D8
:101F60002D6A65726B00416363656C004163636554
:101F70006C00436F6E74726F6C0046696C2E204467
:101F800069612E20320046696C2E204469612E2042
:101F9000320046696C2E204469612E20310046696A
:101FA0006C2E204469612E2031004520696E206D21
:101FB0006D33004F6666004F6E2000436F6E747283
:101FC0006F6C00526573746F7265206661696C7323
:101FD000616665004C6F6164206D656D6F7279009C
:101FE00053746F7265206D656D6F72790046696C10
:101FF000616D656E74004D6F74696F6E0054656D30
:102000007065726174757265004D61696E004D3264
:1020100034004D323320257300022E2E004D6169AD
:102020006E004E6F205344206361726400507269E9
:102030006E742066726F6D2053440053746F70206D
:102040007072696E7400526573756D652070726987
:102050006E74005061757365207072696E74004310
:102060006F6E74726F6C00507265706172650054AF
:10207000756E6500496E666F2073637265656E00EC
:1020800000060900FE070192032120FFFF08FF0759
:10209000FF000000060000010707060200808080A4
:1020A00080800080030202060105A0A00507070644
:1020B00000005050F850F850500507070600002067
:1020C00078A07028F020050707060000C0C810207F
:1020D0004098180507070600006090A040A8906887
:1020E000020303060104C040800307070601002025
:1020F00040808080402003070706010080402020A8
:1021000020408005050506000120A870A8200505CF
:10211000050600012020F820200203030602FFC06C
:102120004080050101060003F8020202060200C019
:10213000C0050505060001081020408005070706B8
:1021400000007088888888887003070706010040AF
:10215000C040404040E00507070600007088087056
:102160008080F8050707060000F81020100808F026
:1021700005070706000010305090F81010050707FB
:10218000060000F880F008088870050707060000C0
:10219000708080F0888870050707060000F8081036
:1021A0002020202005070706000070888870888896
:1021B0007005070706000070888878080870020517
:1021C00005060200C0C000C0C00206060602FFC02D
:1021D000C000C04080040707060000102040804077
:1021E0002010050303060002F800F80407070601A3
:1021F00000804020102040800507070600007088FE
:10220000081020002005070706000070880868A84D
:10221000A870050707060000708888F88888880578
:102220000707060000F08888F08888F00507070691
:10223000000070888080808870050707060000F025
:102240008888888888F0050707060000F88080F0F5
:102250008080F8050707060000F88080F080808005
:10226000050707060000708880B888887005070792
:10227000060000888888F888888801070706020019
:10228000808080808080800507070600003810105D
:10229000101090600507070600008890A0C0A0906D
:1022A00088050707060000808080808080F8050789
:1022B0000706000088D8A8888888880507070600D0
:1022C000008888C8A89888880507070600007088D5
:1022D0008888888870050707060000F08888F080E5
:1022E000808005070706000070888888A890680528
:1022F0000707060000F08888F0A090880507070609
:102300000000788080700808F0050707060000F8D4
:1023100020202020202005070706000088888888C4
:1023200088887005070706000088888888885020FC
:102330000507070600008888888888A850050707D1
:10234000060000888850205088880507070600008E
:1023500088888850202020050707060000F808100C
:10236000204080F8030707060100E080808080801D
:10237000E005050506000180402010080307070658
:102380000100E02020202020E005030306000420B7
:102390005088050101060000F802020206020580CD
:1023A00040050505060000700878887805070706CF
:1023B00000008080B0C88888F00505050600007020
:1023C00080808870050707060000080868988888DC
:1023D000780505050600007088F880700507070677
:1023E00000003048E0404040400506060600FF700F
:1023F00088887808700507070600008080B0C888C4
:1024000088880107070602008000808080808003A2
:1024100008080601FF200020202020A04004070714
:10242000060000808090A0C0A0900307070601006E
:10243000C04040404040E0050505060000D0A8A887
:10244000A8A8050505060000B0C888888805050508
:1024500006000070888888700506060600FFF08870
:1024600088F080800506060600FF788888780808CE
:10247000050505060000B0C880808005050506003A
:102480000070807008F00407070600004040E0403C
:1024900040403005050506000088888898680505D5
:1024A000050600008888885020050505060000887C
:1024B00088A8A8500505050600008850205088050A
:1024C00006060600FF88888878087005050506005E
:1024D00000F8102040F80307070601002040408064
:1024E00040402001070706020080808080808080B5
:1024F000030707060100804040204040800502029B
:1025000006000268900000000600000000000600BF
:1025100000000000060000000000060000000000AF
:102520000600000000000600000000000600000099
:102530000000060000000000060000000000060089
:10254000000000000600000000000600000000007F
:102550000600000000000600000000000600000069
:102560000000060000000000060000000000060059
:10257000000000000600000000000600000000004F
:102580000600000000000600000000000600000039
:102590000000060000000000060000000000060029
:1025A000000000000600000000000600000000001F
:1025B0000600000000000600000000000600000009
:1025C00000000600000000000600000000000600F9
:1025D00000010707060200800080808080800507D8
:1025E000070600002070A8A0A870200507070600B5
:1025F00000304040E04050A8050505060000887006
:10260000507088050707060000885020F820F82041
:10261000010707060200808080008080800508088E
:102620000600003048205050209060030101060150
:1026300007A0050707060000F888B8B8B888F805AD
:102640000707060001700878887800F80505050678
:1026500000012850A05028050303060001F80808CF
:102660000202020602064080050707060000F888FD
:10267000A88898A8F8050101060006F804040406D5
:102680000003609090600507070600002020F820F6
:102690002000F804050506000360902040F00305C3
:1026A00005060003E020E020E002020206020640E8
:1026B000800508080600FF8888888898E8808005DB
:1026C0000707060000789898781818180202020682
:1026D0000202C0C00202020602FF40800305050696
:1026E000000340C04040E0050707060001708888ED
:1026F000887000F8050505060001A0502850A005C7
:1027000007070600008890A858B8080805070706BC
:1027100000008890B848982038050808060000C0D6
:1027200040C048D8380808050707060000200020E8
:10273000408088700508080600004020007088F876
:1027400088880508080600001020007088F888882E
:102750000508080600002050007088F888880508E1
:10276000080600006890007088F888880508080648
:1027700000005000708888F8888805080806000066
:102780002050207088F88888050707060000386008
:10279000A0B8E0A0B80508080600FF70888080880F
:1027A000702060050808060000402000F880F080D6
:1027B000F8050808060000081000F880F080F80509
:1027C0000808060000205000F880F080F805070790
:1027D0000600005000F880F080F8030808060100A9
:1027E000804000E0404040E003080806010020402F
:1027F00000E0404040E003080806010040A000E07F
:10280000404040E0030707060100A000E0404040D0
:10281000E0050707060000704848E84848700508CA
:102820000806000068900088C8A89888050808066F
:10283000000040207088888888700508080600001D
:1028400010207088888888700508080600002050CD
:10285000007088888870050808060000689000707D
:1028600088888870050808060000500070888888ED
:102870008870050505060001885020508805080865
:102880000600FF1070A8A8A8A87040050808060058
:102890000040208888888888700508080600001095
:1028A0002088888888887005080806000020500065
:1028B0008888888870050808060000500088888885
:1028C0008888700508080600001020885020202005
:1028D000200509090600FFC040704848704040E0EC
:1028E0000408080601FF609090A09090E080050821
:1028F000080600004020007008788878050808065F
:10290000000010200070087888780508080600008C
:102910002050007008788878050808060000689044
:1029200000700878887805070706000050007008D6
:1029300078887805080806000020502070087888FC
:1029400078050606060000D02878A0A850050606DF
:102950000600FF70808870206005080806000040AF
:1029600020007088F880700508080600001020001C
:102970007088F880700508080600002050007088F4
:10298000F8807005070706000050007088F8807016
:1029900003080806010080400040C04040E00308F2
:1029A0000806010020400040C04040E0030808063F
:1029B000010040A00040C04040E0030707060100BE
:1029C000A00040C04040E0050707060000A040A06E
:1029D00010788870050808060000689000B0C88864
:1029E00088880508080600004020007088888870E4
:1029F0000508080600001020007088888870050807
:102A000008060000205000708888887005080806B5
:102A1000000068900070888888700507070600002D
:102A2000500070888888700505050600012000F8B0
:102A300000200507070600FF1070A8A8A870400531
:102A40000808060000402000888888986805080863
:102A5000060000102000888888986805080806008D
:102A600000205000888888986805070706000050F5
:102A70000088888898680509090600FF10200088EA
:102A80008888F808700407070601FFC0406050609E
:102A900040E00508080600FF500088888878087024
:102AA00000060900FE000000000001090008FE0009
:102AB0000005080806000040F0C8888898781005CE
:102AC0000808060000C0F88888888888F805050589
:102AD0000600012030F830200508080600002070AC
:102AE000F820202020E00509090600FF2070A8A892
:102AF000B8888870200509090600FFE080C0B0A8EA
:102B0000283028280509090600FFF8A88888888841
:102B100088A8F8050A0A0600FE205050505088A8E0
:102B2000A8887003030306000340A04000000000D3
:102B300000000000000000007FFFE0000000000037
:102B4000000000000000007000E000000000000035
:102B500000000000000061F86000000000000000BC
:102B6000000000000041F82000000000000000000C
:102B70000000000040F02000000000000000000005
:102B80000000004060200000000000000000000085
:102B900000005801A07F80003FC0000000004104F9
:102BA000005C63A0FBC00079E00000000020820010
:102BB0005EF7A0F3C00076E0000000002082005E17
:102BC000F7A0EBC0007EE0000000004104005C6361
:102BD000A07B80003DC0000000008208005801A0DA
:102BE0007B80003BC000000001041000406020FB1F
:102BF000C00077E00000000104100040F020FBC09E
:102C00000070E00000000082080041F820FFC000D2
:102C10007FE00000000041040061F8603F00001FF9
:102C200080000000000000007000E01E00000F00A7
:102C300000000001FFFF807FFFE00C0000060000A5
:102C4000000001FFFF800000000000000000000005
:102C500000000000007FFFE0000000000000000016
:102C6000000000007000E000000000000000000014
:102C7000000000630C600000000000000000000085
:102C80000000470E200000000000000000000000CF
:102C9000004F0F20000000000000000000000000B6
:102CA0005F0FA00000000000000000000000005EB8
:102CB00007A07F80003FC00000000041040040608A
:102CC00020FBC00079E00000000020820040F020DE
:102CD000F3C00076E00000000020820040F020EB0E
:102CE000C0007EE0000000004104004060207B80C6
:102CF000003DC0000000008208005E07A07B80004D
:102D00003BC0000000010410005F0FA0FBC0007773
:102D1000E0000000010410004F0F20FBC00070E035
:102D200000000000820800470E20FFC0007FE00086
:102D3000000000410400630C603F00001F800000A1
:102D400000000000007000E01E00000F0000000006
:102D500001FFFF807FFFE00C000006000000000183
:102D6000FFFF80000000FFFFFF800FFC0F81F80FC6
:102D7000FC00F81E0FFFFFFF800FFF0F83FE0FFF09
:102D800003FE1E0FFFFFFF800FFF0F87FF0FFF07E0
:102D9000FF1F1FE00003800FFF8F8FFF0FFF87FFD4
:102DA0000F1EE00003800F8F8F8F8F8F8F8F8F8F7D
:102DB0001EE03E03800F8F8F8F8F8F8F8F8F87BC8A
:102DC000E03E03800F8F8F8F8F8F8F8F8F87BCE0B8
:102DD0003E03800F8F8F8F8F8F8F8F8F87FCE03E0A
:102DE00003800FFF8F8F8F8FFF8F8F83F8E03E035D
:102DF000800FFF0F8F800FFF0F8F83F8E01C038081
:102E00000FFC0F8F800FFC0F8F83F8E00803800FFB
:102E1000FF0F8F9F8FFF0F8F83F8E00003800FFF5E
:102E20008F8F9F8FFF8F8F83F8E00003800F8F8F2E
:102E30008F9F8F8F8F8F87FCE00003800F8F8F8F86
:102E40008F8F8F8F8F87BCE00003800F8F8F8F8FC6
:102E50008F8F8F8F87BCE00003800F8F8F8F8F8FB6
:102E60008F8F8F873CE00003800F8F8F8F8F8F8F26
:102E70008F8F8F1EE00003800F8F8F8F8F8F8F8F2C
:102E80008F8F1EE00003800FFF8F8FFF8FFF87FF64
:102E90000F1EE00003800FFF8F87FF8FFF87FF1F4C
:102EA0001FE00003800FFF0F83FB8FFF03FE1E0F49
:102EB000E00003800FFE0F81F38FFE00F81E0FE08D
:102EC0000003800000000000000000000000E0009F
:102ED00003800000000000000000000000E000038C
:102EE000800000000000000000000000E7FFF38009
:102EF0000000000000000000000000E7FFF3800079
:102F000000000000000000000000E000038000005E
:102F1000000000000000000000E00003800000004E
:102F20000000000000000000E0000380000000003E
:102F300000000000000000FFFFFF80000000000014
:102F4000000000000000FFFFFF8000000000000004
:102F50000000000000FFFFFF8000000000000000F4
:102F60000000000000000A0B02090C0D0E08070308
:102F7000040100000000000000000000000000004C
:102F80000000000000000000000000000000000041
:102F900012111000000000000000000000000000FE
:102FA00000000000000000000000010210202008C6
:102FB0000810204010204080020102010804020194
:102FC0000102040810204080804020100804020103
:102FD000800402018040201008040201080402015C
:102FE00001020408102040800102040810204080E3
:102FF00005050505070508080808020202020A0A75
:103000000808040404040101010101010101030392
:10301000030303030303040707070C0C0C0C0C0C3D
:103020000C0C0202020206060606060606060B0B3A
:103030000B0B0B0B0B0B00002000230026002900BC
:103040002C002F00320000010000030106010901DD
:1030500000002200250028002B002E003100340043
:1030600002010000050108010B01000021002400FD
:1030700027002A002D003000330001010000040168
:1030800007010A014E414E494E495459494E46CD19
:10309000CCCC3D0AD7233C17B7D13877CC2B32950F
:1030A00095E6241FB14F0A000020410000C84200ED
:1030B000401C4620BCBE4CCA1B0E5AAEC59D7400B7
:1030C000755EA35EDADA74DB795E11241FBECFEF82
:1030D000D1E2DEBFCDBF00E00CBF14E0A0E0B2E063
:1030E000E4EEF1EE01E00BBF02C007900D92AC37A9
:1030F000B107D9F726E1ACE7B4E001C01D92A838CA
:10310000B207E1F710E3C8ECD0E300E006C0229775
:103110000109FE010BBF0E94ACEAC03CD10780E070
:103120000807A9F70E945BE50C94E1F00C940000FD
:10313000452BC1F020910A01206220930A013FB77C
:10314000F89420910B01206220930B013FBF0E9455
:1031500027E39FB7F89480910B018F7D80930B013B
:103160009FBF08950C9427E3FC01148217821382F9
:10317000128286EC93E091838083089526EC33E0FD
:10318000FC01318320832781222319F004960C94BB
:103190008D780895CF92DF92EF92FF920F931F9355
:1031A000CF93DF93EC018F96DFDFCE01805B9F4FE3
:1031B000DBDF7E012FE6E20EF11C87016E013BE5AD
:1031C000C31A3EEFD30AC801CFDF015E1F4F0C15B3
:1031D0001D05C9F7FE01E955FE4F89E1818314827F
:1031E0003596178ACE0186539E4FBEDFFE01E55805
:1031F000FD4F108211821282138238961082118242
:10320000128213821A821B8218821982F80111829B
:103210001082FE01E751FE4F108286E391E0F70134
:103220009C01119221503040E1F7FE01E957FD4F1A
:1032300081E080831EA61DA60E94F8E2C158DD4FE2
:1032400068577C4E8F4F9F4F688379838A839B8317
:10325000DF91CF911F910F91FF90EF90DF90CF9072
:103260000895FC0120E03EE2DB014C91403241F048
:10327000283011F430833196DB014C914083319634
:103280002F5F6F5F7F4F2B3079F7108208952F9259
:103290003F924F925F926F927F928F929F92AF92E6
:1032A000BF92CF92DF92EF92FF920F931F93CF9333
:1032B000DF93CDB7DEB7C657D1090FB6F894DEBF9E
:1032C0000FBECDBF8C016B015A0129012DB73EB74E
:1032D000E3963FAF2EAFE397AD961FAEAD9734E0C8
:1032E000A30EB11C4296E5969FAF8EAFE5971801ED
:1032F00098E7291A9DEF390AF801E657FD4FAF9676
:10330000FFAFEEAFAF973801F5E06F0E711C7E0195
:103310002FE5E20EF11C80E490E08C0F9D1F0496D7
:10332000E7969FAF8EAFE797E5964EAD5FADE59719
:10333000BE016F5F7F4FC5010E94F37618160CF037
:103340003EC12C85322F3871303109F0BCC0F101FB
:10335000808191810197029708F4B5C02DB73EB7DF
:10336000E1963FAF2EAFE197BE016F5F7F4FC70180
:1033700078DF81E0F601908191119DC0E1E0F0E0FD
:10338000D7010D900020E9F7EE19FF09EA0FFB1FA6
:1033900031962DB73EB72E1B3F0B0FB6F8943EBFAC
:1033A0000FBE2DBFEDB7FEB731964F01882319F040
:1033B00066EF72E001C0B601C4010E94E2EDB70100
:1033C000C4010E94C3ED66EF72E0C4010E94C3ED28
:1033D000CE01805C9F4FC8DE21E0A701B501E796D2
:1033E0008EAD9FADE7970E94847A811137C0F101BD
:1033F00080819181892B91F5E4EAFEE08491882314
:1034000041F09091C00095FFFCCF8093C6003196AB
:10341000F5CFE8EFF2E08191882339F09091C00078
:1034200095FFFCCF8093C600F6CF8091C00085FF4A
:10343000FCCF8AE08093C600F7018191882339F0A0
:103440009091C00095FFFCCF8093C600F6CF80918D
:10345000C00085FFFCCF8AE08093C6008BE1FE01AF
:10346000EC5BFF4FDE01959601900D928A95E1F796
:1034700024968EAD9FAD24979CA38BA386EC93E0FE
:103480009AA389A320E030E0AE014F5D5F4FB40105
:10349000C801FDDECE01819671DECE01805C9F4FBA
:1034A0006DDEE1962EAD3FADE1970FB6F8943EBFCD
:1034B0000FBE2DBF39CF80E001900020E9F7319792
:1034C000EC19FD095DCF8981882309F478C08E321B
:1034D00009F42ACFF80182898E3209F425CF23FD21
:1034E00023CF81E0303109F080E0F801848381113D
:1034F00008C08985873409F017CF8A858E3709F48B
:1035000013CFF101808191818130910569F0823082
:10351000910581F1892B09F007CFBE016F5F7F4FC5
:10352000C3019FDEF60110C0AF96EEADFFADAF97C1
:1035300080819181019691838083F6CE9091C00025
:1035400095FFFCCF8093C60081918111F7CFF301E5
:103550008191882339F09091C00095FFFCCF809332
:10356000C600F6CF8091C00085FFFCCF8AE0809333
:10357000C600DACEBE016F5F7F4FC30172DE411419
:10358000510439F0B301C2010E94B0ED892B79F4E6
:1035900016C0AD96FFADAD972F2F30E0AF96EEADD4
:1035A000FFADAF97808191812817390741F0AD9623
:1035B000FFADAD97FF5FAD96FFAFAD97B5CEE3968C
:1035C0002EAD3FADE3970FB6F8943EBF0FBE2DBFB3
:1035D000CA58DF4F0FB6F894DEBF0FBECDBFDF91E4
:1035E000CF911F910F91FF90EF90DF90CF90BF9000
:1035F000AF909F908F907F906F905F904F903F9093
:103600002F900895EF92FF920F931F93CF93DF9324
:10361000CDB7DEB76F970FB6F894DEBF0FBECDBF44
:103620008C01FC01E857FD4F118210827C0183E37D
:10363000E80EF11C40E050E0BA01C7010E94AA77F1
:103640008BE1F701DE01159601900D928A95E1F765
:10365000F80181A992A99C838B8386EC93E09A83DD
:10366000898320E030E0AE014F5F5F4F6DED73E086
:10367000C8010DDECE01019681DD6F960FB6F8947C
:10368000DEBF0FBECDBFDF91CF911F910F91FF9095
:10369000EF9008952BE1FB013496DC011496019024
:1036A0000D922A95E1F7FB0122813381FC013383DE
:1036B00022830895EF92FF920F931F93CF93DF938E
:1036C000EC011B828EA9882321F0CE01C3960E94B3
:1036D0008D787E0189E5E81A8EEFF80A45E360E00F
:1036E000C7010E940A7381111FC0E4EAFEE08491C1
:1036F000882341F09091C00095FFFCCF8093C600D5
:103700003196F5CFE8E7F3E08491882341F090917A
:10371000C00095FFFCCF8093C6003196F5CF809115
:10372000C00085FFFCCF76C08E0104551E4F41E0DE
:10373000B701C8010E948E80811126C040E0B70108
:10374000C8010E948E8081111FC0EAEAFEE08491C8
:10375000882341F09091C00095FFFCCF8093C60074
:103760003196F5CFE5E6F3E08491882341F090911E
:10377000C00095FFFCCF8093C6003196F5CF8091B5
:10378000C00085FFFCCF46C0B801CE01C3960E94A1
:10379000977581111FC0EAEAFEE08491882341F009
:1037A0009091C00095FFFCCF8093C6003196F5CF75
:1037B000E5E5F3E08491882341F09091C00095FF06
:1037C000FCCF8093C6003196F5CF8091C00085FF75
:1037D000FCCF20C081E08B83E4EAFEE08491882363
:1037E00041F09091C00095FFFCCF8093C6003196C8
:1037F000F5CFEAE4F3E08491882341F09091C00092
:1038000095FFFCCF8093C6003196F5CF8091C00024
:1038100085FFFCCF8AE08093C6008E01015D1F4FBB
:10382000B801CE01805B9F4F35DFC25BDF4F19834C
:103830000883DF91CF911F910F91FF90EF90089532
:10384000FC01128213820895FC012381222311F0CE
:1038500021E022830895FC01228121111282089522
:10386000AF92BF92CF92DF92EF92FF920F931F938E
:10387000CF93DF931F92CDB7DEB78C018FE2FB01B0
:1038800081935F01D12C41E07801FBE5EF1AFEEF57
:10389000FF0A8FE1C82E2D2D30E0F7018081918144
:1038A00028173907D8F4C29EC001C39E900D112479
:1038B0008D589F4FB501800F911F49830E943E751F
:1038C000C50149815C010196F5012081222321F087
:1038D0004D3810F44F5FF6CFD394DDCF47FD11C0C4
:1038E000B501C80182539E4F0F90DF91CF911F9178
:1038F0000F91FF90EF90DF90CF90BF90AF900C941E
:103900003E75F50110820F90DF91CF911F910F91BD
:10391000FF90EF90DF90CF90BF90AF9008953F92CF
:103920004F925F926F927F928F929F92AF92BF92CF
:10393000CF92DF92EF92FF920F931F93CF93DF937B
:10394000CDB7DEB7AC970FB6F894DEBF0FBECDBFD4
:103950007C015B01FC018381882309F4EDC0C70170
:1039600082539E4F0E948D78F7011282CE010196FC
:103970006C01FADB27019EE4490E511CC7018F96AA
:10398000F20191838083F50180818F3209F077C045
:103990006FE270E0C5010E94CEED8C010F5F1F4FFA
:1039A0009AE0392E0115110509F46FC06FE270E03D
:1039B000C8010E94CEED4C01009709F467C00817BA
:1039C000190708F063C03C01601A710AA301B8012D
:1039D000CE0180960E94F7EDE0E2F0E0EC0FFD1FD3
:1039E000E60DF71D1082FE01B0968191882339F013
:1039F0009091C00095FFFCCF8093C600F6CF8091D8
:103A0000C00085FFFCCF3092C600F2016081718159
:103A10006115710519F06C5F7F4F02C060E070E0C6
:103A200021E0AE01405E5F4FCE0105960E94847A90
:103A300081111EC0E6E2F2E08491882341F090916A
:103A4000C00095FFFCCF8093C6003196F5CFFE01F4
:103A5000B0968191882339F09091C00095FFFCCFFA
:103A60008093C600F6CF8091C00085FFFCCF5FC079
:103A7000F201D182C08284010F5F1F4F93CFC70133
:103A8000805B9F4FF201918380838501F2018081E9
:103A90009181009711F0049602C080E090E0B80197
:103AA0000E945A7B811103C0E0E0F2E02EC0E8E101
:103AB000F2E08491882341F09091C00095FFFCCF03
:103AC0008093C6003196F5CFF8018191882339F0B3
:103AD0009091C00095FFFCCF8093C600F6CF8091F7
:103AE000C00085FFFCCF8AE08093C600F701ED5748
:103AF000FD4F10821182128213821CC09091C0006F
:103B000095FFFCCF8093C600319684918111F6CF4A
:103B1000F8018191882339F09091C00095FFFCCF86
:103B20008093C600F6CF8091C00085FFFCCF8EE267
:103B30008093C600C60122DBAC960FB6F894DEBFB8
:103B40000FBECDBFDF91CF911F910F91FF90EF90EE
:103B5000DF90CF90BF90AF909F908F907F906F90AD
:103B60005F904F903F900895CF93DF93EC018B814E
:103B7000811103C0EEEDF1E039C0EEEEF1E0849189
:103B8000882341F09091C00095FFFCCF8093C60040
:103B90003196F5CFFE01ED57FD4F40815181628195
:103BA00073812AE030E08CE794E00E9451318091EB
:103BB000C00085FFFCCF8FE28093C600C558DD4F63
:103BC000488159816A817B812AE030E08CE794E06A
:103BD0000E9451318091C00085FFFCCF0EC09091B2
:103BE000C00095FFFCCF8093C6003196849181116F
:103BF000F6CF8091C00085FFFCCF8AE08093C6009D
:103C0000DF91CF910895AF92BF92CF92DF92EF9262
:103C1000FF920F931F93CF93DF935C01EB01FB01A6
:103C200001900020E9F78F0101501109061B170BC5
:103C30006C01F2E3CF1AFEEFDF0AF60110826EE4A8
:103C400070E0CE010E94CEED7C01009729F4F801CE
:103C50003197EC0FFD1F0DC060E270E00E94CEEDC9
:103C6000EC0121966AE270E0C7010E94CEEDFC01F2
:103C700031978DE081838AE082831382BE01C50182
:103C800086539E4F0E94377DF6018081882309F17B
:103C9000EAEAFEE08491882341F09091C00095FF0C
:103CA000FCCF8093C6003196F5CFE8ECF1E084912B
:103CB000882341F09091C00095FFFCCF8093C6000F
:103CC0003196F5CF8091C00085FFFCCF8AE08093CC
:103CD000C600DF91CF911F910F91FF90EF90DF9081
:103CE000CF90BF90AF9008952F923F924F925F92E6
:103CF0006F927F928F929F92AF92BF92CF92DF92FC
:103D0000EF92FF920F931F93CF93DF93CDB7DEB760
:103D1000CC5BD1090FB6F894DEBF0FBECDBF8C01CE
:103D200089579D4F5C01611112C0FC01808188237D
:103D300009F4B1C03897C080D180E280F3800E943E
:103D4000F8E2C616D706E806F90608F4A4C0F5019D
:103D50001082F8018381811107C0C801ABDCF80132
:103D60008381882309F497C0F80186A58F9385A5E0
:103D70008F938FEB91E09F938F937E01F3EBEF0E88
:103D8000F11CFF92EF920E9406EE0F900F900F90A1
:103D90000F900F900F90B12CF70101900020E9F7E0
:103DA0003197EE19FF09BE1684F46701CB0CD11CC4
:103DB000B7FCDA94F6018081992787FD90950E94DF
:103DC00051EDF6018083B394E7CF4801F3E38F0E02
:103DD000911C40E050E0BA01C4010E94AA77512C26
:103DE0006E0183E9C80ED11C28EB622E21E0722EF1
:103DF000FE0131965F0140E050E0B601C4010E942F
:103E0000F3761816E4F5412CF60101900020E9F74D
:103E10003197EC19FD094E1674F41601240C311C6F
:103E200047FC3A94F101808190E00E9451EDF1014C
:103E300080834394E9CFF60181858E37E1F245E036
:103E400050E0B701C6010E94E9ED892BA1F6FF926F
:103E5000EF927F926F92BF92AF920E9406EEC501E1
:103E60000E94A03284EB91E00E9469330F900F9082
:103E70000F900F900F900F9055245394BCCF51107A
:103E800004C08FEF9FEFF80104C0F80185A596A547
:103E9000019696A785A7C454DF4F0FB6F894DEBFEE
:103EA0000FBECDBFDF91CF911F910F91FF90EF908B
:103EB000DF90CF90BF90AF909F908F907F906F904A
:103EC0005F904F903F902F9008950F931F93CF9343
:103ED000DF93EC018C0102531E4FC8010E9443780E
:103EE000C8010E948D7819821882DF91CF911F91AD
:103EF0000F910895CF92DF92EF92FF920F931F934D
:103F0000CF93DF93CDB7DEB76F970FB6F894DEBFD0
:103F10000FBECDBF8C016A017C018EE4E80EF11C5E
:103F2000C801805B9F4FF70191838083E65CFD4F62
:103F300022E030E03183208332967183608340E059
:103F400050E0BA0104960E94AA77F701808191811E
:103F50002BE1FC013496DE01159601900D922A9515
:103F6000E1F7FC01828193819C838B8386EC93E053
:103F70009A8389839601AE014F5F5F4F6DED73E0C9
:103F8000C80185D9CE010196F9D86F960FB6F8947D
:103F9000DEBF0FBECDBFDF91CF911F910F91FF907C
:103FA000EF90DF90CF9008952F923F924F925F92C3
:103FB0006F927F928F929F92AF92BF92CF92DF9239
:103FC000EF92FF920F931F93CF93DF93CDB7DEB79E
:103FD000AC970FB6F894DEBF0FBECDBF8C016B015E
:103FE000342EFC018381882309F4CDC2EF52FE4FA9
:103FF0008081882309F4FAC0222319F0E4EAFEE064
:10400000CDC07801F7E1EF1AFEEFFF0AF7018081DA
:10401000811103C0E4EAFEE035C0EAEAFEE08491E3
:10402000882341F09091C00095FFFCCF8093C6009B
:104030003196F5CFE7E0F3E08491882341F0909149
:10404000C00095FFFCCF8093C6003196F5CF4AE0C3
:1040500050E061E070E08CE794E00E9425318091AF
:10406000C00085FFFCCF8AE08093C6008EEF92E00F
:104070000E94504E88C29091C00095FFFCCF809363
:10408000C600319684918111F6CFE5EEF2E084917D
:10409000882341F09091C00095FFFCCF8093C6002B
:1040A0003196F5CFF6018191882339F09091C000C7
:1040B00095FFFCCF8093C600F6CFEAEDF2E0849145
:1040C000882341F09091C00095FFFCCF8093C600FB
:1040D0003196F5CFF70180814DE8B42EB801B89E36
:1040E000600D711D112462517E4FC801B9DBF701CB
:1040F0008081F801B89EE00DF11D1124E251FE4FC0
:104100008191882339F09091C00095FFFCCF809376
:10411000C600F6CFE4EDF2E08491882341F090915F
:10412000C00095FFFCCF8093C6003196F5CF5801B3
:10413000FDE7AF1AFDEFBF0AF501408151816281B1
:1041400073812AE030E08CE794E00E945131809145
:10415000C00085FFFCCF8AE08093C600F701208174
:10416000F80184E0289FE00DF11D1124AF014651B4
:104170005E4FF50180819181A281B381FA01808334
:104180009183A283B3832F5FF701208329C090918D
:10419000C00095FFFCCF8093C600319684918111B9
:1041A000F6CFE3ECF2E08491882341F09091C000D7
:1041B00095FFFCCF8093C6003196F5CFF601819133
:1041C000882339F09091C00095FFFCCF8093C60002
:1041D000F6CF8091C00085FFFCCF8AE08093C600B7
:1041E000C80182539E4F0E948D7830C0F801E7517C
:1041F000FE4F1082E4EAFEE08491882341F0909122
:10420000C00095FFFCCF8093C6003196F5CFE2EB5E
:10421000F2E08491882341F09091C00095FFFCCF9B
:104220008093C6003196F5CFF6018191882339F04D
:104230009091C00095FFFCCF8093C600F6CF80918F
:10424000C00085FFFCCF8AE08093C600F80112828F
:10425000CE0101965C010E94B41828019EE4490E2B
:10426000511CC8018F96F20191838083F6018081F1
:104270008F3209F077C07601FFEFEF1AFF0A3AE0BC
:10428000232EE114F10409F473C06FE270E0C7015A
:104290000E94CEED4C01009709F46BC0E816F906B8
:1042A00008F067C03C016E187F08A301B701CE017A
:1042B00080960E94F7EDE0E2F0E0EC0FFD1FE60DC6
:1042C000F71D1082FE01B0968191882339F09091FC
:1042D000C00095FFFCCF8093C600F6CF8091C00050
:1042E00085FFFCCF2092C600F201608171816115CB
:1042F000710519F06C5F7F4F02C060E070E021E053
:10430000AE01405E5F4FCE0105960E94847A811116
:1043100021C0EEE9F2E08491882341F09091C00041
:1043200095FFFCCF8093C6003196F5CFFE01B09685
:104330008191882339F09091C00095FFFCCF809344
:10434000C600F6CF8091C00085FFFCCF8EE280933F
:10435000C60016C1F201B182A0827401FFEFEF1A0C
:10436000FF0A8FCFC801805B9F4FF201918380834A
:104370007601C80182539E4F4C01F2016081718128
:10438000332009F4A3C06115710519F06C5F7F4FEC
:1043900002C060E070E021E0A701C4010E94847ABD
:1043A000811103C0E6E6F2E075C0980125583D4F43
:1043B000F40181899289A389B489F9018083918369
:1043C000A283B383E0E9F2E08491882341F09091E5
:1043D000C00095FFFCCF8093C6003196F5CFF70162
:1043E0008191882339F09091C00095FFFCCF809394
:1043F000C600F6CFE8E8F2E08491882341F090917E
:10440000C00095FFFCCF8093C6003196F5CFF9012F
:1044100040815181628173812AE030E08CE794E031
:104420000E9451318091C00085FFFCCF8AE08093CB
:10443000C600F801ED57FD4F1082118212821382DF
:10444000EAE7F2E08491882341F09091C00095FF63
:10445000FCCF8093C6003196F5CF8091C00085FFD8
:10446000FCCF8AE08093C600A70160E070E0C8013D
:1044700041DDF8018289882319F0C801429601C004
:10448000C70160E07BC09091C00095FFFCCF809396
:10449000C600319684918111F6CFF701819188236E
:1044A00039F09091C00095FFFCCF8093C600F6CF05
:1044B000E3E6F2E08491882309F462C09091C000A1
:1044C00095FFFCCF8093C6003196F4CF611571053E
:1044D00019F06C5F7F4F02C060E070E026E5A70135
:1044E000C4010E94847A811125C0EFE4F2E0849136
:1044F000882341F09091C00095FFFCCF8093C600C7
:104500003196F5CFF7018191882339F09091C00061
:1045100095FFFCCF8093C600F6CFECE4F2E08491E7
:10452000882371F19091C00095FFFCCF8093C60065
:104530003196F5CF81E0F8018083EAE3F2E08491DF
:10454000882341F09091C00095FFFCCF8093C60076
:104550003196F5CFF6018191882339F09091C00012
:1045600095FFFCCF8093C600F6CF8091C00085FFF9
:10457000FCCF8AE08093C60060E0C7010E9461B171
:10458000C5010E94BE18AC960FB6F894DEBF0FBEF0
:10459000CDBFDF91CF911F910F91FF90EF90DF90F2
:1045A000CF90BF90AF909F908F907F906F905F90D3
:1045B0004F903F902F90089521E0FC01218340E02F
:1045C000F3CCCF92DF92EF92FF920F931F93CF9392
:1045D000DF93CDB7DEB76F970FB6F894DEBF0FBE8F
:1045E000CDBF8C016C012EE4C20ED11C805B9F4FAD
:1045F000F60191838083E65CFD4F21E030E031835A
:1046000020837801F6E7EF1AFDEFFF0AF701118228
:10461000108240E050E0BA0104960E94AA77F601A9
:10462000808191812BE1FC013496DE011596019089
:104630000D922A95E1F7FC01828193819C838B8303
:1046400086EC93E09A83898320E030E0AE014F5FEF
:104650005F4F6DED73E0C8010E944719CE010196CE
:104660000E94BE18F701808191816F960FB6F89471
:10467000DEBF0FBECDBFDF91CF911F910F91FF9095
:10468000EF90DF90CF900895AF92BF92CF92DF92DC
:10469000EF92FF920F931F93CF93DF93CDB7DEB7C7
:1046A0006F970FB6F894DEBF0FBECDBF8C017B01B4
:1046B000CE0101960E94B418F801E95AFF4F80819B
:1046C0006801811104C02FE2C20ED11C03C080E535
:1046D000C80ED11C21E0A701B6016C5F7F4FCE014F
:1046E00005960E94847A81112DC0E4EAFEE084914F
:1046F000882341F09091C00095FFFCCF8093C600C5
:104700003196F5CFEEE9F1E08491882341F0909164
:10471000C00095FFFCCF8093C6003196F5CFF7011E
:104720008191882339F09091C00095FFFCCF809350
:10473000C600F6CF8091C00085FFFCCF8AE0809351
:10474000C60036C0F801EB55FE4F808191818A305A
:10475000910530F59C012F5F3F4F318320832FE17E
:10476000289F7001299FF00C11242FE6E20EF11C06
:10477000E00EF11E5C01B701C7014F960E944A1B73
:1047800081E0A81AB1082FE1E21AF1088FEFA8160C
:10479000B80689F7B601C80181599F4F0E944A1B8C
:1047A000BE016F5F7F4FC801805B9F4F0E944A1B15
:1047B000CE0101960E94BE186F960FB6F894DEBF28
:1047C0000FBECDBFDF91CF911F910F91FF90EF9062
:1047D000DF90CF90BF90AF900895EF92FF920F932C
:1047E0001F93CF93DF93EC01CB55DE4F28813981A6
:1047F00021153105F9F021503109398328838C01C5
:1048000001591F4FB801805B9F4F0E944A1BC8018E
:1048100000E010E07C012FE1E20EF11C28813981DB
:104820000217130738F40F5F1F4FB7010E944A1B8E
:10483000C701F0CFDF91CF911F910F91FF90EF90C3
:104840000895EF92FF920F931F93CF93DF93EC01A4
:104850000E94268A8E0107511E4FF80180819E0119
:1048600022533E4F79018823A1F1C9010E948D781E
:10487000F801808181508083BE01FDE88F9F600D2B
:10488000711D112462517E4F21E041E0CE018CDB8D
:10489000F8018081FE0124E0829FE00DF11D1124CA
:1048A000E651FE4F4081518162817381FE01ED57D7
:1048B000FD4F4083518362837383C7010E94AA77AF
:1048C000CE01DF91CF911F910F91FF90EF900C944B
:1048D000241CC9010E948D781A8282E991E00E940D
:1048E00069338091C20E882349F11092C20E009163
:1048F000360510E0E801CC0FDD1FC35EDC4E688199
:104900007981882777FD8095982F0E9414E7209160
:1049100041023091420240914302509144020E9470
:1049200075E818165CF419821882C801DF91CF91DE
:104930001F910F91FF90EF900C948590DF91CF9194
:104940001F910F91FF90EF900895AF92BF92DF9269
:10495000EF92FF920F931F93CF93DF931F92CDB7E8
:10496000DEB78C015B01460F8AE0D82E4A1509F4A8
:104970003BC07501F50161915F01F8018081918172
:1049800049830E942AF0F801808191810E9422F0DF
:10499000F70190814981891701F1E4EAFEE08491F1
:1049A000882341F09091C00095FFFCCF8093C60012
:1049B0003196F5CFE8E7F6E08491882341F09091B5
:1049C000C00095FFFCCF8093C6003196F5CF809153
:1049D000C00085FFFCCFD092C600F8018081918194
:1049E000019691838083C2CF0F90DF91CF911F9169
:1049F0000F91FF90EF90DF90BF90AF900895EF92EE
:104A0000FF920F931F93CF93DF931F92CDB7DEB723
:104A10008C017B01460FF8018081918149830E94BE
:104A200022F0F70181937F01F80180819181019645
:104A30009183808349814E11EECF0F90DF91CF910A
:104A40001F910F91FF90EF900895AF92BF92CF9278
:104A5000DF92EF92FF920F931F93CF93DF93CDB727
:104A6000DEB7A4970FB6F894DEBF0FBECDBF198E88
:104A70001A8E1B8E1C8E80E390E3A0E3B0E08D8B3A
:104A80009E8BAF8BB88F84E690E09AA389A344E015
:104A9000BE016B5E7F4FCE01819657DF40E163E040
:104AA0007FE0CE01819651DF40E163E17FE0CE01FE
:104AB00081964BDF40E163EF7EE0CE01819645DFDA
:104AC00044E06BEE7EE0CE0181963FDF44E067EE8E
:104AD0007EE0CE01819639DF44E063EE7EE0CE01D8
:104AE000819633DF44E06FEE7EE0CE0181962DDFCC
:104AF00044E063ED7EE0CE01819627DF44E063E28F
:104B00007FE0CE01819621DF44E06FED7EE0CE01B3
:104B100081961BDF44E06BED7EE0CE01819615DFD0
:104B200044E067ED7EE0CE0181960FDF4CE063E468
:104B300075E0CE01819609DF83E08CA38BA341E071
:104B40006DE979E0CE01819600DF41E0BE016C5D48
:104B50007F4FCE018196F9DE41E0BE016D5D7F4F52
:104B6000CE018196F2DE44E26EE979E0CE018196D3
:104B7000ECDE198A1A8A1B8A1C8A44E0BE016F5E29
:104B80007F4FCE018196E1DE198E1A8E1B8E1C8E10
:104B900007E010E00150110941F044E0BE01675EFA
:104BA0007F4FCE018196D1DEF5CF42E062EB75E119
:104BB000CE018196CADE42E060EB75E1CE018196BE
:104BC000C4DE42E06EEA75E1CE018196BEDE42E0CF
:104BD0006CEA75E1CE018196B8DE42E06AEA75E1E1
:104BE000CE018196B2DE42E068EA75E1CE0181969F
:104BF000ACDE00E010E0C12C30E8D32E3BE3E32E26
:104C000035E4F32E02301105CCF444E067E672E09F
:104C1000CE0181969ADE44E063E672E0CE01819691
:104C200094DE44E06FE572E0CE0181968EDE44E0D2
:104C30006BE572E0CE01819688DE1EC0C98EDA8EE9
:104C4000EB8EFC8E44E0BE01675E7F4FCE01819605
:104C50007CDE198E1A8E1B8E1C8E24E0A22EB12CA7
:104C600081E0A81AB10841F044E0BE01675E7F4FC1
:104C7000CE0181966ADEF4CF0F5F1F4F043011051D
:104C800009F0C0CF42E06CE072E0CE0181965DDEBB
:104C900080E090E8ABE3B5E48D879E87AF87B88B63
:104CA00089879A87AB87BC878D839E83AF83B887BC
:104CB00044E0BE01635F7F4FCE01819646DE44E053
:104CC000BE01675F7F4FCE0181963FDE44E0BE01AB
:104CD0006B5F7F4FCE01819638DE80E290E098A333
:104CE0008F8F42E0BE01615E7F4FCE0181962DDE47
:104CF00080E090E0A0E8BFE3898F9A8FAB8FBC8FF4
:104D000044E0BE01675E7F4FCE0181961EDE41E02A
:104D10006FE475E0CE01819618DE99E2E92E92E00B
:104D2000F92E00E010E0023011054CF4F70180810B
:104D30009181A281B381898F9A8FAB8FBC8F44E020
:104D4000BE01675E7F4FCE018196FFDD0F5F1F4F73
:104D5000F4E0EF0EF11C0430110529F786E592E32B
:104D6000A1E3B0E089839A83AB83BC8384E690E0BF
:104D70009E8F8D8F44E0BE016F5F7F4FCE014D96B9
:104D8000E4DDE4EAFEE08491882341F09091C000E4
:104D900095FFFCCF8093C6003196F5CF49A15AA16B
:104DA000662757FD6095762F86E696E00E948F3243
:104DB000EEE5F6E08491882341F09091C00095FFE4
:104DC000FCCF8093C6003196F5CF8091C00085FF5F
:104DD000FCCF8AE08093C600A4960FB6F894DEBF9D
:104DE0000FBECDBFDF91CF911F910F91FF90EF903C
:104DF000DF90CF90BF90AF900895AF92BF92DF92B7
:104E0000EF92FF920F931F93CF93DF93CDB7DEB74F
:104E1000E0970FB6F894DEBF0FBECDBF80E1E0ECA7
:104E2000F2E0DE01919601900D928A95E1F780E122
:104E3000E0EDF2E0DE01519601900D928A95E1F7E6
:104E400080E1E0EEF2E0DE01119601900D928A958C
:104E5000E1F77E0181E2E80EF11C03E01FE0BE01F4
:104E60006F5E7F4F43E15FE09E012F5F3F4FE3EFB7
:104E7000AE2EEEE0BE2ED12CF70181919191A19141
:104E8000B1917F01F80181939193A193B1938F0127
:104E9000FB0181919191A191B191BF01FA0181939F
:104EA0009193A193B193AF01F90181919191A19156
:104EB000B1919F01F50181939193A193B1935F010A
:104EC000D394F4E0DF12D8CF0E94D57180E090E057
:104ED000A8ECB3E48093EB0E9093EC0EA093ED0E50
:104EE000B093EE0E40E050E46CE975E44093E70EB9
:104EF0005093E80E6093E90E7093EA0E8093E30EF0
:104F00009093E40EA093E50EB093E60E1092EF0E90
:104F10001092F00E1092F10E1092F20E80E29EE4CA
:104F2000A0E0B0E08093230F9093240FA093250F6F
:104F3000B093260F1092D30E1092D40E1092D50E6D
:104F40001092D60E80E090E0A0E0B1E48093DF0EF6
:104F50009093E00EA093E10EB093E20E8DEC9CECEA
:104F6000ACECBEE38093DB0E9093DC0EA093DD0EE1
:104F7000B093DE0E80E090E0A0EAB0E48093D70E1C
:104F80009093D80EA093D90EB093DA0E10924B05E1
:104F900010924C0510924D0510924E051092470547
:104FA000109248051092490510924A051092430547
:104FB00010924405109245051092460510929D09E5
:104FC0008CED90E09093B3158093B2158CE390E054
:104FD0009093B1158093B0151092AF151092AE1545
:104FE00080EF90E09093AD158093AC1588E790E04A
:104FF0009093AB158093AA151092A9151092A8153D
:105000008AE999E9A9EEB1E4809367029093680276
:10501000A0936902B0936A0269E27CE587E990E4B3
:105020000E94219B609363027093640280936502E7
:10503000909366026CEE71E585E392E40E942D9BED
:1050400060935F02709360028093610290936202AA
:1050500080E090E0A8ECB2E480935B0290935C0265
:10506000A0935D02B0935E0284E190E090930D0204
:1050700080930C020E94908C10924F0580E090E08B
:10508000A0E4B0E48093290290932A02A0932B021B
:10509000B0932C0280932D0290932E02A0932F02A6
:1050A000B09330020E94B558E4EAFEE08491882370
:1050B00041F09091C00095FFFCCF8093C6003196DF
:1050C000F5CFE7E1F6E08491882341F09091C000AC
:1050D00095FFFCCF8093C6003196F5CF8091C0003C
:1050E00085FFFCCF8AE08093C600E0960FB6F89467
:1050F000DEBF0FBECDBFDF91CF911F910F91FF900B
:10510000EF90DF90BF90AF9008956F927F928F9253
:105110009F92AF92BF92CF92DF92EF92FF920F9346
:105120001F93CF93DF93782E882389F14091030F4B
:105130005091040F6091050F7091060F8FEF95E06D
:105140000E947E324091070F5091080F6091090F25
:1051500070910A0F8CEF95E00E947E3240910B0F08
:1051600050910C0F60910D0F70910E0F89EF95E02B
:105170000E947E3240910F0F5091100F6091110FDD
:105180007091120F86EF95E00E947E322FC0E4EA04
:10519000FEE08491882341F09091C00095FFFCCF00
:1051A0008093C6003196F5CFE7E0F6E0849188233E
:1051B00041F09091C00095FFFCCF8093C6003196DE
:1051C000F5CF8091C00085FFFCCF8AE08093C600B8
:1051D000E4EAFEE08491882309F4A8CF9091C0000E
:1051E00095FFFCCF8093C6003196F4CF8091C0002C
:1051F00085FFFCCF8AE08093C600772089F140913B
:10520000130F5091140F6091150F7091160F83EDCD
:1052100095E00E947E324091170F5091180F6091D7
:10522000190F70911A0F80ED95E00E947E32409127
:105230001B0F50911C0F60911D0F70911E0F8DEC74
:1052400095E00E947E3240911F0F5091200F609197
:10525000210F7091220F8AEC95E00E947E322FC0C0
:10526000E4EAFEE08491882341F09091C00095FF2C
:10527000FCCF8093C6003196F5CFECEDF5E084913C
:10528000882341F09091C00095FFFCCF8093C60029
:105290003196F5CF8091C00085FFFCCF8AE08093E6
:1052A000C600E4EAFEE08491882309F4A8CF909137
:1052B000C00095FFFCCF8093C6003196F4CF80915B
:1052C000C00085FFFCCF8AE08093C600772089F17B
:1052D0004091F30E5091F40E6091F50E7091F60E20
:1052E00083EA95E00E948F324091F70E5091F80EBC
:1052F0006091F90E7091FA0E80EA95E00E948F326B
:105300004091FB0E5091FC0E6091FD0E7091FE0ECF
:105310008DE995E00E948F324091FF0E5091000F71
:105320006091010F7091020F8AE995E00E948F321F
:105330002FC0E4EAFEE08491882341F09091C00000
:1053400095FFFCCF8093C6003196F5CFECEAF5E0EF
:105350008491882341F09091C00095FFFCCF809309
:10536000C6003196F5CF8091C00085FFFCCF8AE062
:105370008093C600E4EAFEE08491882309F4A8CF74
:105380009091C00095FFFCCF8093C6003196F4CF7A
:105390008091C00085FFFCCF8AE08093C600772013
:1053A00029F14091EB0E5091EC0E6091ED0E709151
:1053B000EE0E8FE595E00E947E324091E70E50910F
:1053C000E80E6091E90E7091EA0E8CE595E00E947E
:1053D0007E324091E30E5091E40E6091E50E7091A3
:1053E000E60E89E595E00E947E322FC0E4EAFEE0F9
:1053F0008491882341F09091C00095FFFCCF809369
:10540000C6003196F5CFE8E6F5E08491882341F0B7
:105410009091C00095FFFCCF8093C6003196F5CFE8
:105420008091C00085FFFCCF8AE08093C600E4EA4B
:10543000FEE08491882309F4B4CF9091C00095FFD9
:10544000FCCF8093C6003196F4CF8091C00085FFD9
:10545000FCCF8AE08093C600772009F449C04091D0
:10546000EF0E5091F00E6091F10E7091F20E8DE9F9
:1054700094E00E947E324091D30E5091D40E609100
:10548000D50E7091D60E8AE994E00E947E3240914A
:10549000230F5091240F6091250F7091260F87E9FB
:1054A00094E00E948F324091DF0E5091E00E6091A7
:1054B000E10E7091E20E84E994E00E947E32409108
:1054C000DB0E5091DC0E6091DD0E7091DE0E81E9F5
:1054D00094E00E947E324091D70E5091D80E609198
:1054E000D90E7091DA0E8EE894E00E947E322FC0C1
:1054F000E4EAFEE08491882341F09091C00095FF9A
:10550000FCCF8093C6003196F5CFE6EAF4E08491B3
:10551000882341F09091C00095FFFCCF8093C60096
:105520003196F5CF8091C00085FFFCCF8AE0809353
:10553000C600E4EAFEE08491882309F490CF9091BC
:10554000C00095FFFCCF8093C6003196F4CF8091C8
:10555000C00085FFFCCF8AE08093C600772011F160
:105560004091430550914405609145057091460571
:1055700083E794E0C3D74091470550914805609177
:10558000490570914A0580E794E0B8D740914B05F2
:1055900050914C0560914D0570914E058DE694E05B
:1055A000ADD72FC0E4EAFEE08491882341F09091CA
:1055B000C00095FFFCCF8093C6003196F5CFECE795
:1055C000F4E08491882341F09091C00095FFFCCFD6
:1055D0008093C6003196F5CF8091C00085FFFCCF47
:1055E0008AE08093C600E4EAFEE08491882309F40F
:1055F000B7CF9091C00095FFFCCF8093C600319645
:10560000F4CF8091C00085FFFCCF8AE08093C60074
:105610007720B9F040919D0950E060E070E081E5AD
:1056200094E07DD743E050E060E070E08EE494E0E9
:1056300076D743E050E060E070E08BE494E06FD711
:1056400021C0EAE5F4E08491882341F09091C00004
:1056500095FFFCCF8093C6003196F5CF8091C000B6
:1056600085FFFCCF8AE08093C600E4EAFEE08491E7
:10567000882381F29091C00095FFFCCF8093C600F3
:105680003196F5CF8091C00085FFFCCF8AE08093F2
:10569000C600FDE98F2EF9E09F2EC5E0D0E0AAE01C
:1056A0006A2EA12CB12C05E010E06E01EE24D7FC8F
:1056B000E094FE2C772001F1B801882777FD8095D2
:1056C000982F0E9414E7AB01BC0182E494E016D746
:1056D000C701B6010E9414E7AB01BC018FE394E05F
:1056E0000DD7F401EA0DFB1D418152816381748164
:1056F0008CE394E003D70DC0E4EAFEE084918823B4
:10570000D9F29091C00095FFFCCF8093C6003196EE
:10571000F5CF8091C00085FFFCCF6092C600035892
:105720001F4F84E0A80EB11C0C3781E0180709F068
:10573000C1CFC15ADF4F8CE0880E911CC23281E08C
:10574000D80709F0AECF772011F14091B2155091F2
:10575000B315662757FD6095762F84E194E0DFD678
:105760004091B0155091B115662757FD6095762F81
:1057700081E194E0D4D64091AE155091AF156627E3
:1057800057FD6095762F8EE094E0C9D62FC0E4EAED
:10579000FEE08491882341F09091C00095FFFCCFFA
:1057A0008093C6003196F5CFE0E2F4E0849188233F
:1057B00041F09091C00095FFFCCF8093C6003196D8
:1057C000F5CF8091C00085FFFCCF8AE08093C600B2
:1057D000E4EAFEE08491882309F4B7CF9091C000F9
:1057E00095FFFCCF8093C6003196F4CF8091C00026
:1057F00085FFFCCF8AE08093C600772011F14091AD
:10580000AC155091AD15662757FD6095762F82E057
:1058100094E085D64091AA155091AB15662757FDA7
:105820006095762F8FEF93E07AD64091A81550912E
:10583000A915662757FD6095762F8CEF93E06FD6FC
:105840000DC0E4EAFEE084918823C9F29091C00083
:1058500095FFFCCF8093C6003196F5CF8091C000B4
:1058600085FFFCCF8AE08093C600711024C0E4EA73
:10587000FEE08491882341F09091C00095FFFCCF19
:105880008093C6003196F5CFEEEEF3E08491882345
:1058900041F09091C00095FFFCCF8093C6003196F7
:1058A000F5CF8091C00085FFFCCF8AE08093C600D1
:1058B000E4EAFEE06BC0C12CD12C7601CAE0B7014E
:1058C000A60185EE93E02BD64091670250916802C5
:1058D0006091690270916A0282EE93E00FD6609146
:1058E00063027091640280916502909166020E9449
:1058F000279BAB01BC018FED93E000D660915F0266
:105900007091600280916102909162020E94339BCB
:10591000AB01BC018CED93E0F1D540915B0250915D
:105920005C0260915D0270915E0289ED93E0E6D5C4
:10593000C11007C060910C0270910D0286ED93E0DA
:10594000CCD58091C00085FFFCCFC093C6008FEFFF
:10595000C81AD80AE80AF80A82E0C816D104E10495
:10596000F10409F0ACCF4091290250912A026091D4
:105970002B0270912C028BE993E0C0D591C09091DD
:10598000C00095FFFCCF8093C600319684918111B1
:10599000F6CF409167025091680260916902709160
:1059A0006A028DEC93E0AAD5609163027091640263
:1059B00080916502909166020E94279BAB01BC0119
:1059C0008AEC93E09BD560915F02709160028091B8
:1059D0006102909162020E94339BAB01BC0187EC93
:1059E00093E08CD540915B0250915C0260915D0226
:1059F00070915E0284EC93E081D560910C0270910D
:105A00000D0281EC93E069D58091C00085FFFCCF49
:105A10008AE08093C600E4EAFEE08491882341F0A6
:105A20009091C00095FFFCCF8093C6003196F5CFD2
:105A3000EEEAF3E08491882341F09091C00095FF55
:105A4000FCCF8093C6003196F5CF80914F05811130
:105A500003C0E4EAF3E00CC08091C00085FFFCCFF6
:105A60000EC09091C00095FFFCCF8093C600319688
:105A700084918111F6CF8091C00085FFFCCF8AE030
:105A80008093C600E4EAFEE08491882309F46BCF9A
:105A90009091C00095FFFCCF8093C6003196F4CF63
:105AA0008091C00085FFFCCF8AE08093C6007720FC
:105AB00061F040912D0250912E0260912F02709161
:105AC00030028FE893E01AD50DC0E4EAFEE084913D
:105AD000882379F39091C00095FFFCCF8093C60096
